{
  "_format": "hh-sol-artifact-1",
  "contractName": "Marketplace",
  "sourceName": "src/backend/contracts/Marketplace.sol",
  "abi": [
    {
      "inputs": [
        {
          "internalType": "uint256",
          "name": "_feePercent",
          "type": "uint256"
        }
      ],
      "stateMutability": "nonpayable",
      "type": "constructor"
    },
    {
      "anonymous": false,
      "inputs": [
        {
          "indexed": true,
          "internalType": "address",
          "name": "sender",
          "type": "address"
        },
        {
          "indexed": false,
          "internalType": "uint256",
          "name": "amount",
          "type": "uint256"
        }
      ],
      "name": "Bid",
      "type": "event"
    },
    {
      "anonymous": false,
      "inputs": [
        {
          "indexed": false,
          "internalType": "uint256",
          "name": "itemId",
          "type": "uint256"
        },
        {
          "indexed": true,
          "internalType": "address",
          "name": "nft",
          "type": "address"
        },
        {
          "indexed": false,
          "internalType": "uint256",
          "name": "tokenId",
          "type": "uint256"
        },
        {
          "indexed": false,
          "internalType": "uint256",
          "name": "price",
          "type": "uint256"
        },
        {
          "indexed": true,
          "internalType": "address",
          "name": "seller",
          "type": "address"
        },
        {
          "indexed": true,
          "internalType": "address",
          "name": "buyer",
          "type": "address"
        }
      ],
      "name": "Bought",
      "type": "event"
    },
    {
      "anonymous": false,
      "inputs": [
        {
          "indexed": false,
          "internalType": "address",
          "name": "winner",
          "type": "address"
        },
        {
          "indexed": false,
          "internalType": "uint256",
          "name": "amount",
          "type": "uint256"
        }
      ],
      "name": "End",
      "type": "event"
    },
    {
      "anonymous": false,
      "inputs": [
        {
          "indexed": false,
          "internalType": "uint256",
          "name": "itemId",
          "type": "uint256"
        },
        {
          "indexed": true,
          "internalType": "address",
          "name": "nft",
          "type": "address"
        },
        {
          "indexed": false,
          "internalType": "uint256",
          "name": "tokenId",
          "type": "uint256"
        },
        {
          "indexed": false,
          "internalType": "uint256",
          "name": "price",
          "type": "uint256"
        },
        {
          "indexed": true,
          "internalType": "address",
          "name": "seller",
          "type": "address"
        }
      ],
      "name": "Offered",
      "type": "event"
    },
    {
      "inputs": [
        {
          "internalType": "uint256",
          "name": "_itemId",
          "type": "uint256"
        }
      ],
      "name": "bid",
      "outputs": [],
      "stateMutability": "payable",
      "type": "function"
    },
    {
      "inputs": [
        {
          "internalType": "uint256",
          "name": "_itemId",
          "type": "uint256"
        }
      ],
      "name": "end",
      "outputs": [],
      "stateMutability": "nonpayable",
      "type": "function"
    },
    {
      "inputs": [],
      "name": "feeAccount",
      "outputs": [
        {
          "internalType": "address payable",
          "name": "",
          "type": "address"
        }
      ],
      "stateMutability": "view",
      "type": "function"
    },
    {
      "inputs": [],
      "name": "feePercent",
      "outputs": [
        {
          "internalType": "uint256",
          "name": "",
          "type": "uint256"
        }
      ],
      "stateMutability": "view",
      "type": "function"
    },
    {
      "inputs": [
        {
          "internalType": "uint256",
          "name": "_itemId",
          "type": "uint256"
        }
      ],
      "name": "getTotalPrice",
      "outputs": [
        {
          "internalType": "uint256",
          "name": "",
          "type": "uint256"
        }
      ],
      "stateMutability": "view",
      "type": "function"
    },
    {
      "inputs": [],
      "name": "highestBid",
      "outputs": [
        {
          "internalType": "uint256",
          "name": "",
          "type": "uint256"
        }
      ],
      "stateMutability": "view",
      "type": "function"
    },
    {
      "inputs": [],
      "name": "highestBidder",
      "outputs": [
        {
          "internalType": "address",
          "name": "",
          "type": "address"
        }
      ],
      "stateMutability": "view",
      "type": "function"
    },
    {
      "inputs": [],
      "name": "itemCount",
      "outputs": [
        {
          "internalType": "uint256",
          "name": "",
          "type": "uint256"
        }
      ],
      "stateMutability": "view",
      "type": "function"
    },
    {
      "inputs": [
        {
          "internalType": "uint256",
          "name": "",
          "type": "uint256"
        }
      ],
      "name": "items",
      "outputs": [
        {
          "internalType": "uint256",
          "name": "itemId",
          "type": "uint256"
        },
        {
          "internalType": "contract IERC721",
          "name": "nft",
          "type": "address"
        },
        {
          "internalType": "uint256",
          "name": "tokenId",
          "type": "uint256"
        },
        {
          "internalType": "uint256",
          "name": "bids",
          "type": "uint256"
        },
        {
          "internalType": "address payable",
          "name": "seller",
          "type": "address"
        },
        {
          "internalType": "bool",
          "name": "sold",
          "type": "bool"
        }
      ],
      "stateMutability": "view",
      "type": "function"
    },
    {
      "inputs": [
        {
          "internalType": "contract IERC721",
          "name": "_nft",
          "type": "address"
        },
        {
          "internalType": "uint256",
          "name": "_tokenId",
          "type": "uint256"
        },
        {
          "internalType": "uint256",
          "name": "_price",
          "type": "uint256"
        }
      ],
      "name": "makeItem",
      "outputs": [],
      "stateMutability": "nonpayable",
      "type": "function"
    },
    {
      "inputs": [
        {
          "internalType": "uint256",
          "name": "_itemId",
          "type": "uint256"
        }
      ],
      "name": "purchaseItem",
      "outputs": [],
      "stateMutability": "payable",
      "type": "function"
    }
  ],
  "bytecode": "0x60c06040523480156200001157600080fd5b506040516200199c3803806200199c83398181016040528101906200003791906200009c565b60016000819055503373ffffffffffffffffffffffffffffffffffffffff1660808173ffffffffffffffffffffffffffffffffffffffff1660601b815250508060a0818152505050620000ec565b6000815190506200009681620000d2565b92915050565b600060208284031215620000af57600080fd5b6000620000bf8482850162000085565b91505092915050565b6000819050919050565b620000dd81620000c8565b8114620000e957600080fd5b50565b60805160601c60a0516118726200012a6000396000818161080b01526108e20152600081816103fe015281816107e10152610b0801526118726000f3fe60806040526004361061009c5760003560e01c806391f901571161006457806391f9015714610167578063bfb231d214610192578063ca7dd375146101d4578063d38ea5bf14610211578063d57bde791461022d578063fa00afc7146102585761009c565b80630ad24528146100a1578063454a2ab3146100ca57806365e17c9d146100e65780636bfb0d01146101115780637fd6f15c1461013c575b600080fd5b3480156100ad57600080fd5b506100c860048036038101906100c3919061105e565b610281565b005b6100e460048036038101906100df919061105e565b61066b565b005b3480156100f257600080fd5b506100fb6107df565b60405161010891906111f1565b60405180910390f35b34801561011d57600080fd5b50610126610803565b6040516101339190611383565b60405180910390f35b34801561014857600080fd5b50610151610809565b60405161015e9190611383565b60405180910390f35b34801561017357600080fd5b5061017c61082d565b60405161018991906111d6565b60405180910390f35b34801561019e57600080fd5b506101b960048036038101906101b4919061105e565b610853565b6040516101cb9695949392919061139e565b60405180910390f35b3480156101e057600080fd5b506101fb60048036038101906101f6919061105e565b6108dc565b6040516102089190611383565b60405180910390f35b61022b6004803603810190610226919061105e565b61093f565b005b34801561023957600080fd5b50610242610d0d565b60405161024f9190611383565b60405180910390f35b34801561026457600080fd5b5061027f600480360381019061027a919061100f565b610d13565b005b600061028c826108dc565b905060006004600084815260200190815260200160002090508060040160009054906101000a900473ffffffffffffffffffffffffffffffffffffffff1673ffffffffffffffffffffffffffffffffffffffff163373ffffffffffffffffffffffffffffffffffffffff1614610337576040517f08c379a000000000000000000000000000000000000000000000000000000000815260040161032e906112e3565b60405180910390fd5b600073ffffffffffffffffffffffffffffffffffffffff16600260009054906101000a900473ffffffffffffffffffffffffffffffffffffffff1673ffffffffffffffffffffffffffffffffffffffff161461054d578060040160009054906101000a900473ffffffffffffffffffffffffffffffffffffffff1673ffffffffffffffffffffffffffffffffffffffff166108fc82600301549081150290604051600060405180830381858888f193505050501580156103fb573d6000803e3d6000fd5b507f000000000000000000000000000000000000000000000000000000000000000073ffffffffffffffffffffffffffffffffffffffff166108fc8260030154846104469190611528565b9081150290604051600060405180830381858888f19350505050158015610471573d6000803e3d6000fd5b5060018160040160146101000a81548160ff0219169083151502179055508060010160009054906101000a900473ffffffffffffffffffffffffffffffffffffffff1673ffffffffffffffffffffffffffffffffffffffff166342842e0e30600260009054906101000a900473ffffffffffffffffffffffffffffffffffffffff1684600201546040518463ffffffff1660e01b815260040161051693929190611243565b600060405180830381600087803b15801561053057600080fd5b505af1158015610544573d6000803e3d6000fd5b50505050610609565b8060010160009054906101000a900473ffffffffffffffffffffffffffffffffffffffff1673ffffffffffffffffffffffffffffffffffffffff166342842e0e308360040160009054906101000a900473ffffffffffffffffffffffffffffffffffffffff1684600201546040518463ffffffff1660e01b81526004016105d69392919061120c565b600060405180830381600087803b1580156105f057600080fd5b505af1158015610604573d6000803e3d6000fd5b505050505b7f7d7570b046e5ead3a4f3fbc9fa2445113625a1e79823776146316bafed6b8cc5600260009054906101000a900473ffffffffffffffffffffffffffffffffffffffff1660035460405161065e92919061127a565b60405180910390a1505050565b6000600460008381526020019081526020016000209050806003015460038190555060035434116106d1576040517f08c379a00000000000000000000000000000000000000000000000000000000081526004016106c890611303565b60405180910390fd5b600073ffffffffffffffffffffffffffffffffffffffff16600260009054906101000a900473ffffffffffffffffffffffffffffffffffffffff1673ffffffffffffffffffffffffffffffffffffffff16146107455760035481600301600082825461073d9190611447565b925050819055505b33600260006101000a81548173ffffffffffffffffffffffffffffffffffffffff021916908373ffffffffffffffffffffffffffffffffffffffff160217905550346003819055503373ffffffffffffffffffffffffffffffffffffffff167fe684a55f31b79eca403df938249029212a5925ec6be8012e099b45bc1019e5d2346040516107d39190611383565b60405180910390a25050565b7f000000000000000000000000000000000000000000000000000000000000000081565b60015481565b7f000000000000000000000000000000000000000000000000000000000000000081565b600260009054906101000a900473ffffffffffffffffffffffffffffffffffffffff1681565b60046020528060005260406000206000915090508060000154908060010160009054906101000a900473ffffffffffffffffffffffffffffffffffffffff16908060020154908060030154908060040160009054906101000a900473ffffffffffffffffffffffffffffffffffffffff16908060040160149054906101000a900460ff16905086565b600060647f0000000000000000000000000000000000000000000000000000000000000000606461090d9190611447565b600460008581526020019081526020016000206003015461092e91906114ce565b610938919061149d565b9050919050565b60026000541415610985576040517f08c379a000000000000000000000000000000000000000000000000000000000815260040161097c90611363565b60405180910390fd5b60026000819055506000610998826108dc565b905060006004600084815260200190815260200160002090506000831180156109c357506001548311155b610a02576040517f08c379a00000000000000000000000000000000000000000000000000000000081526004016109f990611343565b60405180910390fd5b81341015610a45576040517f08c379a0000000000000000000000000000000000000000000000000000000008152600401610a3c90611323565b60405180910390fd5b8060040160149054906101000a900460ff1615610a97576040517f08c379a0000000000000000000000000000000000000000000000000000000008152600401610a8e906112a3565b60405180910390fd5b8060040160009054906101000a900473ffffffffffffffffffffffffffffffffffffffff1673ffffffffffffffffffffffffffffffffffffffff166108fc82600301549081150290604051600060405180830381858888f19350505050158015610b05573d6000803e3d6000fd5b507f000000000000000000000000000000000000000000000000000000000000000073ffffffffffffffffffffffffffffffffffffffff166108fc826003015484610b509190611528565b9081150290604051600060405180830381858888f19350505050158015610b7b573d6000803e3d6000fd5b5060018160040160146101000a81548160ff0219169083151502179055508060010160009054906101000a900473ffffffffffffffffffffffffffffffffffffffff1673ffffffffffffffffffffffffffffffffffffffff166323b872dd303384600201546040518463ffffffff1660e01b8152600401610bfe93929190611243565b600060405180830381600087803b158015610c1857600080fd5b505af1158015610c2c573d6000803e3d6000fd5b505050503373ffffffffffffffffffffffffffffffffffffffff168160040160009054906101000a900473ffffffffffffffffffffffffffffffffffffffff1673ffffffffffffffffffffffffffffffffffffffff168260010160009054906101000a900473ffffffffffffffffffffffffffffffffffffffff1673ffffffffffffffffffffffffffffffffffffffff167f8b4c9c8a607d67b321582dd8461041b1dc2ceeca70c8b7f37f8e02095cf2e76d8685600201548660030154604051610cf8939291906113ff565b60405180910390a45050600160008190555050565b60035481565b60026000541415610d59576040517f08c379a0000000000000000000000000000000000000000000000000000000008152600401610d5090611363565b60405180910390fd5b600260008190555060008111610da4576040517f08c379a0000000000000000000000000000000000000000000000000000000008152600401610d9b906112c3565b60405180910390fd5b60016000815480929190610db790611622565b91905055508273ffffffffffffffffffffffffffffffffffffffff166323b872dd3330856040518463ffffffff1660e01b8152600401610df993929190611243565b600060405180830381600087803b158015610e1357600080fd5b505af1158015610e27573d6000803e3d6000fd5b505050506040518060c0016040528060015481526020018473ffffffffffffffffffffffffffffffffffffffff1681526020018381526020018281526020013373ffffffffffffffffffffffffffffffffffffffff168152602001600015158152506004600060015481526020019081526020016000206000820151816000015560208201518160010160006101000a81548173ffffffffffffffffffffffffffffffffffffffff021916908373ffffffffffffffffffffffffffffffffffffffff160217905550604082015181600201556060820151816003015560808201518160040160006101000a81548173ffffffffffffffffffffffffffffffffffffffff021916908373ffffffffffffffffffffffffffffffffffffffff16021790555060a08201518160040160146101000a81548160ff0219169083151502179055509050503373ffffffffffffffffffffffffffffffffffffffff168373ffffffffffffffffffffffffffffffffffffffff167f655a0cf9c8db81512be9a76dc1c5ae5380b8816ce6ad659cd61b715e2999d59a6001548585604051610fd0939291906113ff565b60405180910390a36001600081905550505050565b600081359050610ff48161180e565b92915050565b60008135905061100981611825565b92915050565b60008060006060848603121561102457600080fd5b600061103286828701610fe5565b935050602061104386828701610ffa565b925050604061105486828701610ffa565b9150509250925092565b60006020828403121561107057600080fd5b600061107e84828501610ffa565b91505092915050565b611090816115c8565b82525050565b61109f8161156e565b82525050565b6110ae8161155c565b82525050565b6110bd81611580565b82525050565b6110cc816115da565b82525050565b60006110df601183611436565b91506110ea826116c9565b602082019050919050565b6000611102601f83611436565b915061110d826116f2565b602082019050919050565b6000611125600e83611436565b91506111308261171b565b602082019050919050565b6000611148600f83611436565b915061115382611744565b602082019050919050565b600061116b603383611436565b91506111768261176d565b604082019050919050565b600061118e601283611436565b9150611199826117bc565b602082019050919050565b60006111b1601f83611436565b91506111bc826117e5565b602082019050919050565b6111d0816115be565b82525050565b60006020820190506111eb60008301846110a5565b92915050565b60006020820190506112066000830184611096565b92915050565b600060608201905061122160008301866110a5565b61122e6020830185611087565b61123b60408301846111c7565b949350505050565b600060608201905061125860008301866110a5565b61126560208301856110a5565b61127260408301846111c7565b949350505050565b600060408201905061128f60008301856110a5565b61129c60208301846111c7565b9392505050565b600060208201905081810360008301526112bc816110d2565b9050919050565b600060208201905081810360008301526112dc816110f5565b9050919050565b600060208201905081810360008301526112fc81611118565b9050919050565b6000602082019050818103600083015261131c8161113b565b9050919050565b6000602082019050818103600083015261133c8161115e565b9050919050565b6000602082019050818103600083015261135c81611181565b9050919050565b6000602082019050818103600083015261137c816111a4565b9050919050565b600060208201905061139860008301846111c7565b92915050565b600060c0820190506113b360008301896111c7565b6113c060208301886110c3565b6113cd60408301876111c7565b6113da60608301866111c7565b6113e76080830185611096565b6113f460a08301846110b4565b979650505050505050565b600060608201905061141460008301866111c7565b61142160208301856111c7565b61142e60408301846111c7565b949350505050565b600082825260208201905092915050565b6000611452826115be565b915061145d836115be565b9250827fffffffffffffffffffffffffffffffffffffffffffffffffffffffffffffffff038211156114925761149161166b565b5b828201905092915050565b60006114a8826115be565b91506114b3836115be565b9250826114c3576114c261169a565b5b828204905092915050565b60006114d9826115be565b91506114e4836115be565b9250817fffffffffffffffffffffffffffffffffffffffffffffffffffffffffffffffff048311821515161561151d5761151c61166b565b5b828202905092915050565b6000611533826115be565b915061153e836115be565b9250828210156115515761155061166b565b5b828203905092915050565b60006115678261159e565b9050919050565b60006115798261159e565b9050919050565b60008115159050919050565b60006115978261155c565b9050919050565b600073ffffffffffffffffffffffffffffffffffffffff82169050919050565b6000819050919050565b60006115d3826115fe565b9050919050565b60006115e5826115ec565b9050919050565b60006115f78261159e565b9050919050565b600061160982611610565b9050919050565b600061161b8261159e565b9050919050565b600061162d826115be565b91507fffffffffffffffffffffffffffffffffffffffffffffffffffffffffffffffff8214156116605761165f61166b565b5b600182019050919050565b7f4e487b7100000000000000000000000000000000000000000000000000000000600052601160045260246000fd5b7f4e487b7100000000000000000000000000000000000000000000000000000000600052601260045260246000fd5b7f6974656d20616c726561647920736f6c64000000000000000000000000000000600082015250565b7f5072696365206d7573742062652067726561746572207468616e207a65726f00600082015250565b7f4d7573742062652073656c6c6572000000000000000000000000000000000000600082015250565b7f76616c7565203c20686967686573740000000000000000000000000000000000600082015250565b7f6e6f7420656e6f75676820657468657220746f20636f766572206974656d207060008201527f7269636520616e64206d61726b65742066656500000000000000000000000000602082015250565b7f6974656d20646f65736e27742065786973740000000000000000000000000000600082015250565b7f5265656e7472616e637947756172643a207265656e7472616e742063616c6c00600082015250565b6118178161158c565b811461182257600080fd5b50565b61182e816115be565b811461183957600080fd5b5056fea2646970667358221220b563e51df94628caf9226d13ea206781f4d7e12e6ae66afad8c20ee41132464e64736f6c63430008040033",
  "linkReferences": {},
  "deployedLinkReferences": {}
}