{
  "_format": "hh-sol-artifact-1",
  "contractName": "Marketplace",
  "sourceName": "src/backend/contracts/Marketplace.sol",
  "abi": [
    {
      "inputs": [
        {
          "internalType": "uint256",
          "name": "_feePercent",
          "type": "uint256"
        }
      ],
      "stateMutability": "nonpayable",
      "type": "constructor"
    },
    {
      "anonymous": false,
      "inputs": [
        {
          "indexed": true,
          "internalType": "address",
          "name": "owner",
          "type": "address"
        },
        {
          "indexed": true,
          "internalType": "address",
          "name": "approved",
          "type": "address"
        },
        {
          "indexed": true,
          "internalType": "uint256",
          "name": "tokenId",
          "type": "uint256"
        }
      ],
      "name": "Approval",
      "type": "event"
    },
    {
      "anonymous": false,
      "inputs": [
        {
          "indexed": true,
          "internalType": "address",
          "name": "owner",
          "type": "address"
        },
        {
          "indexed": true,
          "internalType": "address",
          "name": "operator",
          "type": "address"
        },
        {
          "indexed": false,
          "internalType": "bool",
          "name": "approved",
          "type": "bool"
        }
      ],
      "name": "ApprovalForAll",
      "type": "event"
    },
    {
      "anonymous": false,
      "inputs": [
        {
          "indexed": true,
          "internalType": "address",
          "name": "sender",
          "type": "address"
        },
        {
          "indexed": false,
          "internalType": "uint256",
          "name": "amount",
          "type": "uint256"
        }
      ],
      "name": "Bid",
      "type": "event"
    },
    {
      "anonymous": false,
      "inputs": [
        {
          "indexed": false,
          "internalType": "uint256",
          "name": "itemId",
          "type": "uint256"
        },
        {
          "indexed": false,
          "internalType": "uint256",
          "name": "tokenId",
          "type": "uint256"
        },
        {
          "indexed": false,
          "internalType": "uint256",
          "name": "price",
          "type": "uint256"
        },
        {
          "indexed": true,
          "internalType": "address",
          "name": "seller",
          "type": "address"
        },
        {
          "indexed": true,
          "internalType": "address",
          "name": "buyer",
          "type": "address"
        }
      ],
      "name": "Bought",
      "type": "event"
    },
    {
      "anonymous": false,
      "inputs": [
        {
          "indexed": false,
          "internalType": "address",
          "name": "winner",
          "type": "address"
        },
        {
          "indexed": false,
          "internalType": "uint256",
          "name": "amount",
          "type": "uint256"
        }
      ],
      "name": "End",
      "type": "event"
    },
    {
      "anonymous": false,
      "inputs": [
        {
          "indexed": false,
          "internalType": "uint256",
          "name": "itemId",
          "type": "uint256"
        },
        {
          "indexed": false,
          "internalType": "uint256",
          "name": "tokenId",
          "type": "uint256"
        },
        {
          "indexed": false,
          "internalType": "uint256",
          "name": "price",
          "type": "uint256"
        },
        {
          "indexed": true,
          "internalType": "address",
          "name": "seller",
          "type": "address"
        }
      ],
      "name": "Offered",
      "type": "event"
    },
    {
      "anonymous": false,
      "inputs": [
        {
          "indexed": true,
          "internalType": "address",
          "name": "from",
          "type": "address"
        },
        {
          "indexed": true,
          "internalType": "address",
          "name": "to",
          "type": "address"
        },
        {
          "indexed": true,
          "internalType": "uint256",
          "name": "tokenId",
          "type": "uint256"
        }
      ],
      "name": "Transfer",
      "type": "event"
    },
    {
      "inputs": [
        {
          "internalType": "address",
          "name": "to",
          "type": "address"
        },
        {
          "internalType": "uint256",
          "name": "tokenId",
          "type": "uint256"
        }
      ],
      "name": "approve",
      "outputs": [],
      "stateMutability": "nonpayable",
      "type": "function"
    },
    {
      "inputs": [
        {
          "internalType": "address",
          "name": "owner",
          "type": "address"
        }
      ],
      "name": "balanceOf",
      "outputs": [
        {
          "internalType": "uint256",
          "name": "",
          "type": "uint256"
        }
      ],
      "stateMutability": "view",
      "type": "function"
    },
    {
      "inputs": [
        {
          "internalType": "uint256",
          "name": "_itemId",
          "type": "uint256"
        }
      ],
      "name": "bid",
      "outputs": [],
      "stateMutability": "payable",
      "type": "function"
    },
    {
      "inputs": [
        {
          "internalType": "uint256",
          "name": "_itemId",
          "type": "uint256"
        }
      ],
      "name": "end",
      "outputs": [],
      "stateMutability": "payable",
      "type": "function"
    },
    {
      "inputs": [],
      "name": "feeAccount",
      "outputs": [
        {
          "internalType": "address payable",
          "name": "",
          "type": "address"
        }
      ],
      "stateMutability": "view",
      "type": "function"
    },
    {
      "inputs": [],
      "name": "feePercent",
      "outputs": [
        {
          "internalType": "uint256",
          "name": "",
          "type": "uint256"
        }
      ],
      "stateMutability": "view",
      "type": "function"
    },
    {
      "inputs": [
        {
          "internalType": "uint256",
          "name": "tokenId",
          "type": "uint256"
        }
      ],
      "name": "getApproved",
      "outputs": [
        {
          "internalType": "address",
          "name": "",
          "type": "address"
        }
      ],
      "stateMutability": "view",
      "type": "function"
    },
    {
      "inputs": [
        {
          "internalType": "uint256",
          "name": "_itemId",
          "type": "uint256"
        }
      ],
      "name": "getCurrentBid",
      "outputs": [
        {
          "internalType": "uint256",
          "name": "",
          "type": "uint256"
        }
      ],
      "stateMutability": "view",
      "type": "function"
    },
    {
      "inputs": [
        {
          "internalType": "uint256",
          "name": "_itemId",
          "type": "uint256"
        }
      ],
      "name": "getCurrentBid",
      "outputs": [
        {
          "internalType": "uint256",
          "name": "",
          "type": "uint256"
        }
      ],
      "stateMutability": "view",
      "type": "function"
    },
    {
      "inputs": [
        {
          "internalType": "uint256",
          "name": "_itemId",
          "type": "uint256"
        }
      ],
      "name": "getTotalPrice",
      "outputs": [
        {
          "internalType": "uint256",
          "name": "",
          "type": "uint256"
        }
      ],
      "stateMutability": "view",
      "type": "function"
    },
    {
      "inputs": [
        {
          "internalType": "uint256",
          "name": "",
          "type": "uint256"
        }
      ],
      "name": "highestBid",
      "outputs": [
        {
          "internalType": "uint256",
          "name": "",
          "type": "uint256"
        }
      ],
      "stateMutability": "view",
      "type": "function"
    },
    {
      "inputs": [
        {
          "internalType": "uint256",
          "name": "",
          "type": "uint256"
        }
      ],
      "name": "highestBidder",
      "outputs": [
        {
          "internalType": "address",
          "name": "",
          "type": "address"
        }
      ],
      "stateMutability": "view",
      "type": "function"
    },
    {
      "inputs": [
        {
          "internalType": "address",
          "name": "owner",
          "type": "address"
        },
        {
          "internalType": "address",
          "name": "operator",
          "type": "address"
        }
      ],
      "name": "isApprovedForAll",
      "outputs": [
        {
          "internalType": "bool",
          "name": "",
          "type": "bool"
        }
      ],
      "stateMutability": "view",
      "type": "function"
    },
    {
      "inputs": [],
      "name": "itemCount",
      "outputs": [
        {
          "internalType": "uint256",
          "name": "",
          "type": "uint256"
        }
      ],
      "stateMutability": "view",
      "type": "function"
    },
    {
      "inputs": [
        {
          "internalType": "uint256",
          "name": "",
          "type": "uint256"
        }
      ],
      "name": "items",
      "outputs": [
        {
          "internalType": "uint256",
          "name": "itemId",
          "type": "uint256"
        },
        {
          "internalType": "uint256",
          "name": "tokenId",
          "type": "uint256"
        },
        {
          "internalType": "uint256",
          "name": "bids",
          "type": "uint256"
        },
        {
          "internalType": "address payable",
          "name": "seller",
          "type": "address"
        },
        {
          "internalType": "bool",
          "name": "sold",
          "type": "bool"
        }
      ],
      "stateMutability": "view",
      "type": "function"
    },
    {
      "inputs": [
        {
          "internalType": "uint256",
          "name": "_tokenId",
          "type": "uint256"
        },
        {
          "internalType": "uint256",
          "name": "_price",
          "type": "uint256"
        }
      ],
      "name": "makeItem",
      "outputs": [],
      "stateMutability": "nonpayable",
      "type": "function"
    },
    {
      "inputs": [
        {
          "internalType": "string",
          "name": "_tokenURI",
          "type": "string"
        },
        {
          "internalType": "uint256",
          "name": "price",
          "type": "uint256"
        }
      ],
      "name": "mint",
      "outputs": [
        {
          "internalType": "uint256",
          "name": "",
          "type": "uint256"
        }
      ],
      "stateMutability": "nonpayable",
      "type": "function"
    },
    {
      "inputs": [],
      "name": "name",
      "outputs": [
        {
          "internalType": "string",
          "name": "",
          "type": "string"
        }
      ],
      "stateMutability": "view",
      "type": "function"
    },
    {
      "inputs": [
        {
          "internalType": "uint256",
          "name": "tokenId",
          "type": "uint256"
        }
      ],
      "name": "ownerOf",
      "outputs": [
        {
          "internalType": "address",
          "name": "",
          "type": "address"
        }
      ],
      "stateMutability": "view",
      "type": "function"
    },
    {
      "inputs": [
        {
          "internalType": "address",
          "name": "from",
          "type": "address"
        },
        {
          "internalType": "address",
          "name": "to",
          "type": "address"
        },
        {
          "internalType": "uint256",
          "name": "tokenId",
          "type": "uint256"
        }
      ],
      "name": "safeTransferFrom",
      "outputs": [],
      "stateMutability": "nonpayable",
      "type": "function"
    },
    {
      "inputs": [
        {
          "internalType": "address",
          "name": "from",
          "type": "address"
        },
        {
          "internalType": "address",
          "name": "to",
          "type": "address"
        },
        {
          "internalType": "uint256",
          "name": "tokenId",
          "type": "uint256"
        },
        {
          "internalType": "bytes",
          "name": "_data",
          "type": "bytes"
        }
      ],
      "name": "safeTransferFrom",
      "outputs": [],
      "stateMutability": "nonpayable",
      "type": "function"
    },
    {
      "inputs": [
        {
          "internalType": "address",
          "name": "operator",
          "type": "address"
        },
        {
          "internalType": "bool",
          "name": "approved",
          "type": "bool"
        }
      ],
      "name": "setApprovalForAll",
      "outputs": [],
      "stateMutability": "nonpayable",
      "type": "function"
    },
    {
      "inputs": [
        {
          "internalType": "bytes4",
          "name": "interfaceId",
          "type": "bytes4"
        }
      ],
      "name": "supportsInterface",
      "outputs": [
        {
          "internalType": "bool",
          "name": "",
          "type": "bool"
        }
      ],
      "stateMutability": "view",
      "type": "function"
    },
    {
      "inputs": [],
      "name": "symbol",
      "outputs": [
        {
          "internalType": "string",
          "name": "",
          "type": "string"
        }
      ],
      "stateMutability": "view",
      "type": "function"
    },
    {
      "inputs": [],
      "name": "tokenCount",
      "outputs": [
        {
          "internalType": "uint256",
          "name": "",
          "type": "uint256"
        }
      ],
      "stateMutability": "view",
      "type": "function"
    },
    {
      "inputs": [
        {
          "internalType": "uint256",
          "name": "tokenId",
          "type": "uint256"
        }
      ],
      "name": "tokenURI",
      "outputs": [
        {
          "internalType": "string",
          "name": "",
          "type": "string"
        }
      ],
      "stateMutability": "view",
      "type": "function"
    },
    {
      "inputs": [
        {
          "internalType": "address",
          "name": "from",
          "type": "address"
        },
        {
          "internalType": "address",
          "name": "to",
          "type": "address"
        },
        {
          "internalType": "uint256",
          "name": "tokenId",
          "type": "uint256"
        }
      ],
      "name": "transferFrom",
      "outputs": [],
      "stateMutability": "nonpayable",
      "type": "function"
    }
  ],
  "bytecode": "0x60c06040523480156200001157600080fd5b5060405162003e9138038062003e918339818101604052810190620000379190620001ec565b6040518060400160405280600c81526020017f416c7978204d79737465727900000000000000000000000000000000000000008152506040518060400160405280600381526020017f414c5800000000000000000000000000000000000000000000000000000000008152508160009080519060200190620000bb92919062000125565b508060019080519060200190620000d492919062000125565b50505060016007819055503373ffffffffffffffffffffffffffffffffffffffff1660808173ffffffffffffffffffffffffffffffffffffffff1660601b815250508060a0818152505050620002a1565b828054620001339062000222565b90600052602060002090601f016020900481019282620001575760008555620001a3565b82601f106200017257805160ff1916838001178555620001a3565b82800160010185558215620001a3579182015b82811115620001a257825182559160200191906001019062000185565b5b509050620001b29190620001b6565b5090565b5b80821115620001d1576000816000905550600101620001b7565b5090565b600081519050620001e68162000287565b92915050565b600060208284031215620001ff57600080fd5b60006200020f84828501620001d5565b91505092915050565b6000819050919050565b600060028204905060018216806200023b57607f821691505b6020821081141562000252576200025162000258565b5b50919050565b7f4e487b7100000000000000000000000000000000000000000000000000000000600052602260045260246000fd5b620002928162000218565b81146200029e57600080fd5b50565b60805160601c60a051613bb9620002d8600039600081816113040152611609015260008181610d7c01526112220152613bb96000f3fe6080604052600436106101815760003560e01c80636bfb0d01116100d1578063b14c63c51161008a578063c87b56dd11610064578063c87b56dd146105a2578063ca7dd375146105df578063da4e364f1461061c578063e985e9c51461065957610181565b8063b14c63c5146104fb578063b88d4fde14610538578063bfb231d21461056157610181565b80636bfb0d01146103e957806370a08231146104145780637fd6f15c1461045157806395d89b411461047c5780639f181b5e146104a7578063a22cb465146104d257610181565b80630ad245281161013e578063451df52e11610118578063451df52e14610328578063454a2ab3146103655780636352211e1461038157806365e17c9d146103be57610181565b80630ad24528146102ba57806323b872dd146102d657806342842e0e146102ff57610181565b806301ffc9a714610186578063056b01ce146101c357806306fdde0314610200578063081812fc1461022b578063095ea7b3146102685780630a50e3be14610291575b600080fd5b34801561019257600080fd5b506101ad60048036038101906101a891906128dd565b610696565b6040516101ba9190612e52565b60405180910390f35b3480156101cf57600080fd5b506101ea60048036038101906101e5919061292f565b610778565b6040516101f7919061310f565b60405180910390f35b34801561020c57600080fd5b506102156107cc565b6040516102229190612e6d565b60405180910390f35b34801561023757600080fd5b50610252600480360381019061024d9190612983565b61085e565b60405161025f9190612da7565b60405180910390f35b34801561027457600080fd5b5061028f600480360381019061028a91906128a1565b6108e3565b005b34801561029d57600080fd5b506102b860048036038101906102b391906129ac565b6109fb565b005b6102d460048036038101906102cf9190612983565b610bee565b005b3480156102e257600080fd5b506102fd60048036038101906102f8919061279b565b610f0c565b005b34801561030b57600080fd5b506103266004803603810190610321919061279b565b610f6c565b005b34801561033457600080fd5b5061034f600480360381019061034a9190612983565b610f8c565b60405161035c9190612da7565b60405180910390f35b61037f600480360381019061037a9190612983565b610fbf565b005b34801561038d57600080fd5b506103a860048036038101906103a39190612983565b61116e565b6040516103b59190612da7565b60405180910390f35b3480156103ca57600080fd5b506103d3611220565b6040516103e09190612dc2565b60405180910390f35b3480156103f557600080fd5b506103fe611244565b60405161040b919061310f565b60405180910390f35b34801561042057600080fd5b5061043b60048036038101906104369190612736565b61124a565b604051610448919061310f565b60405180910390f35b34801561045d57600080fd5b50610466611302565b604051610473919061310f565b60405180910390f35b34801561048857600080fd5b50610491611326565b60405161049e9190612e6d565b60405180910390f35b3480156104b357600080fd5b506104bc6113b8565b6040516104c9919061310f565b60405180910390f35b3480156104de57600080fd5b506104f960048036038101906104f49190612865565b6113be565b005b34801561050757600080fd5b50610522600480360381019061051d9190612983565b6113d4565b60405161052f919061310f565b60405180910390f35b34801561054457600080fd5b5061055f600480360381019061055a91906127ea565b6113ec565b005b34801561056d57600080fd5b5061058860048036038101906105839190612983565b61144e565b604051610599959493929190613161565b60405180910390f35b3480156105ae57600080fd5b506105c960048036038101906105c49190612983565b6114b1565b6040516105d69190612e6d565b60405180910390f35b3480156105eb57600080fd5b5061060660048036038101906106019190612983565b611603565b604051610613919061310f565b60405180910390f35b34801561062857600080fd5b50610643600480360381019061063e9190612983565b611666565b604051610650919061310f565b60405180910390f35b34801561066557600080fd5b50610680600480360381019061067b919061275f565b61172b565b60405161068d9190612e52565b60405180910390f35b60007f80ac58cd000000000000000000000000000000000000000000000000000000007bffffffffffffffffffffffffffffffffffffffffffffffffffffffff1916827bffffffffffffffffffffffffffffffffffffffffffffffffffffffff1916148061076157507f5b5e139f000000000000000000000000000000000000000000000000000000007bffffffffffffffffffffffffffffffffffffffffffffffffffffffff1916827bffffffffffffffffffffffffffffffffffffffffffffffffffffffff1916145b806107715750610770826117bf565b5b9050919050565b60006008600081548092919061078d906134be565b919050555061079e33600854611829565b6107aa60085484611847565b6107b53060016113be565b6107c1600854836109fb565b600854905092915050565b6060600080546107db9061345b565b80601f01602080910402602001604051908101604052809291908181526020018280546108079061345b565b80156108545780601f1061082957610100808354040283529160200191610854565b820191906000526020600020905b81548152906001019060200180831161083757829003601f168201915b5050505050905090565b6000610869826118bb565b6108a8576040517f08c379a000000000000000000000000000000000000000000000000000000000815260040161089f9061306f565b60405180910390fd5b6004600083815260200190815260200160002060009054906101000a900473ffffffffffffffffffffffffffffffffffffffff169050919050565b60006108ee8261116e565b90508073ffffffffffffffffffffffffffffffffffffffff168373ffffffffffffffffffffffffffffffffffffffff16141561095f576040517f08c379a0000000000000000000000000000000000000000000000000000000008152600401610956906130af565b60405180910390fd5b8073ffffffffffffffffffffffffffffffffffffffff1661097e611927565b73ffffffffffffffffffffffffffffffffffffffff1614806109ad57506109ac816109a7611927565b61172b565b5b6109ec576040517f08c379a00000000000000000000000000000000000000000000000000000000081526004016109e390612faf565b60405180910390fd5b6109f6838361192f565b505050565b60026007541415610a41576040517f08c379a0000000000000000000000000000000000000000000000000000000008152600401610a38906130ef565b60405180910390fd5b600260078190555060008111610a8c576040517f08c379a0000000000000000000000000000000000000000000000000000000008152600401610a8390612e8f565b60405180910390fd5b60096000815480929190610a9f906134be565b9190505550610aaf333084610f0c565b6040518060a0016040528060095481526020018381526020018281526020013373ffffffffffffffffffffffffffffffffffffffff16815260200160001515815250600c6000600954815260200190815260200160002060008201518160000155602082015181600101556040820151816002015560608201518160030160006101000a81548173ffffffffffffffffffffffffffffffffffffffff021916908373ffffffffffffffffffffffffffffffffffffffff16021790555060808201518160030160146101000a81548160ff0219169083151502179055509050503373ffffffffffffffffffffffffffffffffffffffff167fd846d2cfaaa23a2723be747ef18b5d16a1484d901d581da4843cc27638c862ad6009548484604051610bda9392919061312a565b60405180910390a260016007819055505050565b6000610bf982611603565b90506000600c600084815260200190815260200160002090508060030160009054906101000a900473ffffffffffffffffffffffffffffffffffffffff1673ffffffffffffffffffffffffffffffffffffffff163373ffffffffffffffffffffffffffffffffffffffff1614610ca4576040517f08c379a0000000000000000000000000000000000000000000000000000000008152600401610c9b90612eef565b60405180910390fd5b600073ffffffffffffffffffffffffffffffffffffffff16600a600085815260200190815260200160002060009054906101000a900473ffffffffffffffffffffffffffffffffffffffff1673ffffffffffffffffffffffffffffffffffffffff1614610e54578060030160009054906101000a900473ffffffffffffffffffffffffffffffffffffffff1673ffffffffffffffffffffffffffffffffffffffff166108fc82600201549081150290604051600060405180830381858888f19350505050158015610d79573d6000803e3d6000fd5b507f000000000000000000000000000000000000000000000000000000000000000073ffffffffffffffffffffffffffffffffffffffff166108fc826002015484610dc4919061335f565b9081150290604051600060405180830381858888f19350505050158015610def573d6000803e3d6000fd5b5060018160030160146101000a81548160ff021916908315150217905550610e4f30600a600086815260200190815260200160002060009054906101000a900473ffffffffffffffffffffffffffffffffffffffff1683600101546119e8565b610e88565b610e87308260030160009054906101000a900473ffffffffffffffffffffffffffffffffffffffff1683600101546119e8565b5b7f7d7570b046e5ead3a4f3fbc9fa2445113625a1e79823776146316bafed6b8cc5600a600085815260200190815260200160002060009054906101000a900473ffffffffffffffffffffffffffffffffffffffff16600b600086815260200190815260200160002054604051610eff929190612e29565b60405180910390a1505050565b610f1d610f17611927565b82611c4f565b610f5c576040517f08c379a0000000000000000000000000000000000000000000000000000000008152600401610f53906130cf565b60405180910390fd5b610f678383836119e8565b505050565b610f87838383604051806020016040528060008152506113ec565b505050565b600a6020528060005260406000206000915054906101000a900473ffffffffffffffffffffffffffffffffffffffff1681565b6000600c60008381526020019081526020016000209050610fdf82611666565b341180610fef5750806002015434115b61102e576040517f08c379a000000000000000000000000000000000000000000000000000000000815260040161102590612f2f565b60405180910390fd5b33600a600084815260200190815260200160002060006101000a81548173ffffffffffffffffffffffffffffffffffffffff021916908373ffffffffffffffffffffffffffffffffffffffff16021790555034600b600084815260200190815260200160002081905550600073ffffffffffffffffffffffffffffffffffffffff16600a600084815260200190815260200160002060009054906101000a900473ffffffffffffffffffffffffffffffffffffffff1673ffffffffffffffffffffffffffffffffffffffff161461111c57600b60008381526020019081526020016000205481600201819055505b3373ffffffffffffffffffffffffffffffffffffffff167fe684a55f31b79eca403df938249029212a5925ec6be8012e099b45bc1019e5d234604051611162919061310f565b60405180910390a25050565b6000806002600084815260200190815260200160002060009054906101000a900473ffffffffffffffffffffffffffffffffffffffff169050600073ffffffffffffffffffffffffffffffffffffffff168173ffffffffffffffffffffffffffffffffffffffff161415611217576040517f08c379a000000000000000000000000000000000000000000000000000000000815260040161120e90612fef565b60405180910390fd5b80915050919050565b7f000000000000000000000000000000000000000000000000000000000000000081565b60095481565b60008073ffffffffffffffffffffffffffffffffffffffff168273ffffffffffffffffffffffffffffffffffffffff1614156112bb576040517f08c379a00000000000000000000000000000000000000000000000000000000081526004016112b290612fcf565b60405180910390fd5b600360008373ffffffffffffffffffffffffffffffffffffffff1673ffffffffffffffffffffffffffffffffffffffff168152602001908152602001600020549050919050565b7f000000000000000000000000000000000000000000000000000000000000000081565b6060600180546113359061345b565b80601f01602080910402602001604051908101604052809291908181526020018280546113619061345b565b80156113ae5780601f10611383576101008083540402835291602001916113ae565b820191906000526020600020905b81548152906001019060200180831161139157829003601f168201915b5050505050905090565b60085481565b6113d06113c9611927565b8383611d2d565b5050565b600b6020528060005260406000206000915090505481565b6113fd6113f7611927565b83611c4f565b61143c576040517f08c379a0000000000000000000000000000000000000000000000000000000008152600401611433906130cf565b60405180910390fd5b61144884848484611e9a565b50505050565b600c6020528060005260406000206000915090508060000154908060010154908060020154908060030160009054906101000a900473ffffffffffffffffffffffffffffffffffffffff16908060030160149054906101000a900460ff16905085565b60606114bc826118bb565b6114fb576040517f08c379a00000000000000000000000000000000000000000000000000000000081526004016114f29061304f565b60405180910390fd5b600060066000848152602001908152602001600020805461151b9061345b565b80601f01602080910402602001604051908101604052809291908181526020018280546115479061345b565b80156115945780601f1061156957610100808354040283529160200191611594565b820191906000526020600020905b81548152906001019060200180831161157757829003601f168201915b5050505050905060006115a5611ef6565b90506000815114156115bb5781925050506115fe565b6000825111156115f05780826040516020016115d8929190612d83565b604051602081830303815290604052925050506115fe565b6115f984611f0d565b925050505b919050565b600060647f00000000000000000000000000000000000000000000000000000000000000006064611634919061327e565b600c6000858152602001908152602001600020600201546116559190613305565b61165f91906132d4565b9050919050565b600080600c60008481526020019081526020016000206040518060a00160405290816000820154815260200160018201548152602001600282015481526020016003820160009054906101000a900473ffffffffffffffffffffffffffffffffffffffff1673ffffffffffffffffffffffffffffffffffffffff1673ffffffffffffffffffffffffffffffffffffffff1681526020016003820160149054906101000a900460ff16151515158152505090506000816040015190508092505050919050565b6000600560008473ffffffffffffffffffffffffffffffffffffffff1673ffffffffffffffffffffffffffffffffffffffff16815260200190815260200160002060008373ffffffffffffffffffffffffffffffffffffffff1673ffffffffffffffffffffffffffffffffffffffff16815260200190815260200160002060009054906101000a900460ff16905092915050565b60007f01ffc9a7000000000000000000000000000000000000000000000000000000007bffffffffffffffffffffffffffffffffffffffffffffffffffffffff1916827bffffffffffffffffffffffffffffffffffffffffffffffffffffffff1916149050919050565b611843828260405180602001604052806000815250611fb4565b5050565b611850826118bb565b61188f576040517f08c379a00000000000000000000000000000000000000000000000000000000081526004016118869061300f565b60405180910390fd5b806006600084815260200190815260200160002090805190602001906118b692919061255a565b505050565b60008073ffffffffffffffffffffffffffffffffffffffff166002600084815260200190815260200160002060009054906101000a900473ffffffffffffffffffffffffffffffffffffffff1673ffffffffffffffffffffffffffffffffffffffff1614159050919050565b600033905090565b816004600083815260200190815260200160002060006101000a81548173ffffffffffffffffffffffffffffffffffffffff021916908373ffffffffffffffffffffffffffffffffffffffff160217905550808273ffffffffffffffffffffffffffffffffffffffff166119a28361116e565b73ffffffffffffffffffffffffffffffffffffffff167f8c5be1e5ebec7d5bd14f71427d1e84f3dd0314c0f7b2291e5b200ac8c7c3b92560405160405180910390a45050565b8273ffffffffffffffffffffffffffffffffffffffff16611a088261116e565b73ffffffffffffffffffffffffffffffffffffffff1614611a5e576040517f08c379a0000000000000000000000000000000000000000000000000000000008152600401611a5590612ecf565b60405180910390fd5b600073ffffffffffffffffffffffffffffffffffffffff168273ffffffffffffffffffffffffffffffffffffffff161415611ace576040517f08c379a0000000000000000000000000000000000000000000000000000000008152600401611ac590612f4f565b60405180910390fd5b611ad983838361200f565b611ae460008261192f565b6001600360008573ffffffffffffffffffffffffffffffffffffffff1673ffffffffffffffffffffffffffffffffffffffff1681526020019081526020016000206000828254611b34919061335f565b925050819055506001600360008473ffffffffffffffffffffffffffffffffffffffff1673ffffffffffffffffffffffffffffffffffffffff1681526020019081526020016000206000828254611b8b919061327e565b92505081905550816002600083815260200190815260200160002060006101000a81548173ffffffffffffffffffffffffffffffffffffffff021916908373ffffffffffffffffffffffffffffffffffffffff160217905550808273ffffffffffffffffffffffffffffffffffffffff168473ffffffffffffffffffffffffffffffffffffffff167fddf252ad1be2c89b69c2b068fc378daa952ba7f163c4a11628f55a4df523b3ef60405160405180910390a4611c4a838383612014565b505050565b6000611c5a826118bb565b611c99576040517f08c379a0000000000000000000000000000000000000000000000000000000008152600401611c9090612f8f565b60405180910390fd5b6000611ca48361116e565b90508073ffffffffffffffffffffffffffffffffffffffff168473ffffffffffffffffffffffffffffffffffffffff161480611d1357508373ffffffffffffffffffffffffffffffffffffffff16611cfb8461085e565b73ffffffffffffffffffffffffffffffffffffffff16145b80611d245750611d23818561172b565b5b91505092915050565b8173ffffffffffffffffffffffffffffffffffffffff168373ffffffffffffffffffffffffffffffffffffffff161415611d9c576040517f08c379a0000000000000000000000000000000000000000000000000000000008152600401611d9390612f6f565b60405180910390fd5b80600560008573ffffffffffffffffffffffffffffffffffffffff1673ffffffffffffffffffffffffffffffffffffffff16815260200190815260200160002060008473ffffffffffffffffffffffffffffffffffffffff1673ffffffffffffffffffffffffffffffffffffffff16815260200190815260200160002060006101000a81548160ff0219169083151502179055508173ffffffffffffffffffffffffffffffffffffffff168373ffffffffffffffffffffffffffffffffffffffff167f17307eab39ab6107e8899845ad3d59bd9653f200f220920489ca2b5937696c3183604051611e8d9190612e52565b60405180910390a3505050565b611ea58484846119e8565b611eb184848484612019565b611ef0576040517f08c379a0000000000000000000000000000000000000000000000000000000008152600401611ee790612eaf565b60405180910390fd5b50505050565b606060405180602001604052806000815250905090565b6060611f18826118bb565b611f57576040517f08c379a0000000000000000000000000000000000000000000000000000000008152600401611f4e9061308f565b60405180910390fd5b6000611f61611ef6565b90506000815111611f815760405180602001604052806000815250611fac565b80611f8b846121b0565b604051602001611f9c929190612d83565b6040516020818303038152906040525b915050919050565b611fbe838361235d565b611fcb6000848484612019565b61200a576040517f08c379a000000000000000000000000000000000000000000000000000000000815260040161200190612eaf565b60405180910390fd5b505050565b505050565b505050565b600061203a8473ffffffffffffffffffffffffffffffffffffffff16612537565b156121a3578373ffffffffffffffffffffffffffffffffffffffff1663150b7a02612063611927565b8786866040518563ffffffff1660e01b81526004016120859493929190612ddd565b602060405180830381600087803b15801561209f57600080fd5b505af19250505080156120d057506040513d601f19601f820116820180604052508101906120cd9190612906565b60015b612153573d8060008114612100576040519150601f19603f3d011682016040523d82523d6000602084013e612105565b606091505b5060008151141561214b576040517f08c379a000000000000000000000000000000000000000000000000000000000815260040161214290612eaf565b60405180910390fd5b805181602001fd5b63150b7a0260e01b7bffffffffffffffffffffffffffffffffffffffffffffffffffffffff1916817bffffffffffffffffffffffffffffffffffffffffffffffffffffffff1916149150506121a8565b600190505b949350505050565b606060008214156121f8576040518060400160405280600181526020017f30000000000000000000000000000000000000000000000000000000000000008152509050612358565b600082905060005b6000821461222a578080612213906134be565b915050600a8261222391906132d4565b9150612200565b60008167ffffffffffffffff81111561226c577f4e487b7100000000000000000000000000000000000000000000000000000000600052604160045260246000fd5b6040519080825280601f01601f19166020018201604052801561229e5781602001600182028036833780820191505090505b5090505b60008514612351576001826122b7919061335f565b9150600a856122c69190613507565b60306122d2919061327e565b60f81b81838151811061230e577f4e487b7100000000000000000000000000000000000000000000000000000000600052603260045260246000fd5b60200101907effffffffffffffffffffffffffffffffffffffffffffffffffffffffffffff1916908160001a905350600a8561234a91906132d4565b94506122a2565b8093505050505b919050565b600073ffffffffffffffffffffffffffffffffffffffff168273ffffffffffffffffffffffffffffffffffffffff1614156123cd576040517f08c379a00000000000000000000000000000000000000000000000000000000081526004016123c49061302f565b60405180910390fd5b6123d6816118bb565b15612416576040517f08c379a000000000000000000000000000000000000000000000000000000000815260040161240d90612f0f565b60405180910390fd5b6124226000838361200f565b6001600360008473ffffffffffffffffffffffffffffffffffffffff1673ffffffffffffffffffffffffffffffffffffffff1681526020019081526020016000206000828254612472919061327e565b92505081905550816002600083815260200190815260200160002060006101000a81548173ffffffffffffffffffffffffffffffffffffffff021916908373ffffffffffffffffffffffffffffffffffffffff160217905550808273ffffffffffffffffffffffffffffffffffffffff16600073ffffffffffffffffffffffffffffffffffffffff167fddf252ad1be2c89b69c2b068fc378daa952ba7f163c4a11628f55a4df523b3ef60405160405180910390a461253360008383612014565b5050565b6000808273ffffffffffffffffffffffffffffffffffffffff163b119050919050565b8280546125669061345b565b90600052602060002090601f01602090048101928261258857600085556125cf565b82601f106125a157805160ff19168380011785556125cf565b828001600101855582156125cf579182015b828111156125ce5782518255916020019190600101906125b3565b5b5090506125dc91906125e0565b5090565b5b808211156125f95760008160009055506001016125e1565b5090565b600061261061260b846131d9565b6131b4565b90508281526020810184848401111561262857600080fd5b612633848285613419565b509392505050565b600061264e6126498461320a565b6131b4565b90508281526020810184848401111561266657600080fd5b612671848285613419565b509392505050565b60008135905061268881613b27565b92915050565b60008135905061269d81613b3e565b92915050565b6000813590506126b281613b55565b92915050565b6000815190506126c781613b55565b92915050565b600082601f8301126126de57600080fd5b81356126ee8482602086016125fd565b91505092915050565b600082601f83011261270857600080fd5b813561271884826020860161263b565b91505092915050565b60008135905061273081613b6c565b92915050565b60006020828403121561274857600080fd5b600061275684828501612679565b91505092915050565b6000806040838503121561277257600080fd5b600061278085828601612679565b925050602061279185828601612679565b9150509250929050565b6000806000606084860312156127b057600080fd5b60006127be86828701612679565b93505060206127cf86828701612679565b92505060406127e086828701612721565b9150509250925092565b6000806000806080858703121561280057600080fd5b600061280e87828801612679565b945050602061281f87828801612679565b935050604061283087828801612721565b925050606085013567ffffffffffffffff81111561284d57600080fd5b612859878288016126cd565b91505092959194509250565b6000806040838503121561287857600080fd5b600061288685828601612679565b92505060206128978582860161268e565b9150509250929050565b600080604083850312156128b457600080fd5b60006128c285828601612679565b92505060206128d385828601612721565b9150509250929050565b6000602082840312156128ef57600080fd5b60006128fd848285016126a3565b91505092915050565b60006020828403121561291857600080fd5b6000612926848285016126b8565b91505092915050565b6000806040838503121561294257600080fd5b600083013567ffffffffffffffff81111561295c57600080fd5b612968858286016126f7565b925050602061297985828601612721565b9150509250929050565b60006020828403121561299557600080fd5b60006129a384828501612721565b91505092915050565b600080604083850312156129bf57600080fd5b60006129cd85828601612721565b92505060206129de85828601612721565b9150509250929050565b6129f1816133a5565b82525050565b612a0081613393565b82525050565b612a0f816133b7565b82525050565b6000612a208261323b565b612a2a8185613251565b9350612a3a818560208601613428565b612a43816135f4565b840191505092915050565b6000612a5982613246565b612a638185613262565b9350612a73818560208601613428565b612a7c816135f4565b840191505092915050565b6000612a9282613246565b612a9c8185613273565b9350612aac818560208601613428565b80840191505092915050565b6000612ac5601f83613262565b9150612ad082613605565b602082019050919050565b6000612ae8603283613262565b9150612af38261362e565b604082019050919050565b6000612b0b602583613262565b9150612b168261367d565b604082019050919050565b6000612b2e600e83613262565b9150612b39826136cc565b602082019050919050565b6000612b51601c83613262565b9150612b5c826136f5565b602082019050919050565b6000612b74600f83613262565b9150612b7f8261371e565b602082019050919050565b6000612b97602483613262565b9150612ba282613747565b604082019050919050565b6000612bba601983613262565b9150612bc582613796565b602082019050919050565b6000612bdd602c83613262565b9150612be8826137bf565b604082019050919050565b6000612c00603883613262565b9150612c0b8261380e565b604082019050919050565b6000612c23602a83613262565b9150612c2e8261385d565b604082019050919050565b6000612c46602983613262565b9150612c51826138ac565b604082019050919050565b6000612c69602e83613262565b9150612c74826138fb565b604082019050919050565b6000612c8c602083613262565b9150612c978261394a565b602082019050919050565b6000612caf603183613262565b9150612cba82613973565b604082019050919050565b6000612cd2602c83613262565b9150612cdd826139c2565b604082019050919050565b6000612cf5602f83613262565b9150612d0082613a11565b604082019050919050565b6000612d18602183613262565b9150612d2382613a60565b604082019050919050565b6000612d3b603183613262565b9150612d4682613aaf565b604082019050919050565b6000612d5e601f83613262565b9150612d6982613afe565b602082019050919050565b612d7d8161340f565b82525050565b6000612d8f8285612a87565b9150612d9b8284612a87565b91508190509392505050565b6000602082019050612dbc60008301846129f7565b92915050565b6000602082019050612dd760008301846129e8565b92915050565b6000608082019050612df260008301876129f7565b612dff60208301866129f7565b612e0c6040830185612d74565b8181036060830152612e1e8184612a15565b905095945050505050565b6000604082019050612e3e60008301856129f7565b612e4b6020830184612d74565b9392505050565b6000602082019050612e676000830184612a06565b92915050565b60006020820190508181036000830152612e878184612a4e565b905092915050565b60006020820190508181036000830152612ea881612ab8565b9050919050565b60006020820190508181036000830152612ec881612adb565b9050919050565b60006020820190508181036000830152612ee881612afe565b9050919050565b60006020820190508181036000830152612f0881612b21565b9050919050565b60006020820190508181036000830152612f2881612b44565b9050919050565b60006020820190508181036000830152612f4881612b67565b9050919050565b60006020820190508181036000830152612f6881612b8a565b9050919050565b60006020820190508181036000830152612f8881612bad565b9050919050565b60006020820190508181036000830152612fa881612bd0565b9050919050565b60006020820190508181036000830152612fc881612bf3565b9050919050565b60006020820190508181036000830152612fe881612c16565b9050919050565b6000602082019050818103600083015261300881612c39565b9050919050565b6000602082019050818103600083015261302881612c5c565b9050919050565b6000602082019050818103600083015261304881612c7f565b9050919050565b6000602082019050818103600083015261306881612ca2565b9050919050565b6000602082019050818103600083015261308881612cc5565b9050919050565b600060208201905081810360008301526130a881612ce8565b9050919050565b600060208201905081810360008301526130c881612d0b565b9050919050565b600060208201905081810360008301526130e881612d2e565b9050919050565b6000602082019050818103600083015261310881612d51565b9050919050565b60006020820190506131246000830184612d74565b92915050565b600060608201905061313f6000830186612d74565b61314c6020830185612d74565b6131596040830184612d74565b949350505050565b600060a0820190506131766000830188612d74565b6131836020830187612d74565b6131906040830186612d74565b61319d60608301856129e8565b6131aa6080830184612a06565b9695505050505050565b60006131be6131cf565b90506131ca828261348d565b919050565b6000604051905090565b600067ffffffffffffffff8211156131f4576131f36135c5565b5b6131fd826135f4565b9050602081019050919050565b600067ffffffffffffffff821115613225576132246135c5565b5b61322e826135f4565b9050602081019050919050565b600081519050919050565b600081519050919050565b600082825260208201905092915050565b600082825260208201905092915050565b600081905092915050565b60006132898261340f565b91506132948361340f565b9250827fffffffffffffffffffffffffffffffffffffffffffffffffffffffffffffffff038211156132c9576132c8613538565b5b828201905092915050565b60006132df8261340f565b91506132ea8361340f565b9250826132fa576132f9613567565b5b828204905092915050565b60006133108261340f565b915061331b8361340f565b9250817fffffffffffffffffffffffffffffffffffffffffffffffffffffffffffffffff048311821515161561335457613353613538565b5b828202905092915050565b600061336a8261340f565b91506133758361340f565b92508282101561338857613387613538565b5b828203905092915050565b600061339e826133ef565b9050919050565b60006133b0826133ef565b9050919050565b60008115159050919050565b60007fffffffff0000000000000000000000000000000000000000000000000000000082169050919050565b600073ffffffffffffffffffffffffffffffffffffffff82169050919050565b6000819050919050565b82818337600083830152505050565b60005b8381101561344657808201518184015260208101905061342b565b83811115613455576000848401525b50505050565b6000600282049050600182168061347357607f821691505b6020821081141561348757613486613596565b5b50919050565b613496826135f4565b810181811067ffffffffffffffff821117156134b5576134b46135c5565b5b80604052505050565b60006134c98261340f565b91507fffffffffffffffffffffffffffffffffffffffffffffffffffffffffffffffff8214156134fc576134fb613538565b5b600182019050919050565b60006135128261340f565b915061351d8361340f565b92508261352d5761352c613567565b5b828206905092915050565b7f4e487b7100000000000000000000000000000000000000000000000000000000600052601160045260246000fd5b7f4e487b7100000000000000000000000000000000000000000000000000000000600052601260045260246000fd5b7f4e487b7100000000000000000000000000000000000000000000000000000000600052602260045260246000fd5b7f4e487b7100000000000000000000000000000000000000000000000000000000600052604160045260246000fd5b6000601f19601f8301169050919050565b7f5072696365206d7573742062652067726561746572207468616e207a65726f00600082015250565b7f4552433732313a207472616e7366657220746f206e6f6e20455243373231526560008201527f63656976657220696d706c656d656e7465720000000000000000000000000000602082015250565b7f4552433732313a207472616e736665722066726f6d20696e636f72726563742060008201527f6f776e6572000000000000000000000000000000000000000000000000000000602082015250565b7f4d7573742062652073656c6c6572000000000000000000000000000000000000600082015250565b7f4552433732313a20746f6b656e20616c7265616479206d696e74656400000000600082015250565b7f76616c7565203c20686967686573740000000000000000000000000000000000600082015250565b7f4552433732313a207472616e7366657220746f20746865207a65726f2061646460008201527f7265737300000000000000000000000000000000000000000000000000000000602082015250565b7f4552433732313a20617070726f766520746f2063616c6c657200000000000000600082015250565b7f4552433732313a206f70657261746f7220717565727920666f72206e6f6e657860008201527f697374656e7420746f6b656e0000000000000000000000000000000000000000602082015250565b7f4552433732313a20617070726f76652063616c6c6572206973206e6f74206f7760008201527f6e6572206e6f7220617070726f76656420666f7220616c6c0000000000000000602082015250565b7f4552433732313a2062616c616e636520717565727920666f7220746865207a6560008201527f726f206164647265737300000000000000000000000000000000000000000000602082015250565b7f4552433732313a206f776e657220717565727920666f72206e6f6e657869737460008201527f656e7420746f6b656e0000000000000000000000000000000000000000000000602082015250565b7f45524337323155524953746f726167653a2055524920736574206f66206e6f6e60008201527f6578697374656e7420746f6b656e000000000000000000000000000000000000602082015250565b7f4552433732313a206d696e7420746f20746865207a65726f2061646472657373600082015250565b7f45524337323155524953746f726167653a2055524920717565727920666f722060008201527f6e6f6e6578697374656e7420746f6b656e000000000000000000000000000000602082015250565b7f4552433732313a20617070726f76656420717565727920666f72206e6f6e657860008201527f697374656e7420746f6b656e0000000000000000000000000000000000000000602082015250565b7f4552433732314d657461646174613a2055524920717565727920666f72206e6f60008201527f6e6578697374656e7420746f6b656e0000000000000000000000000000000000602082015250565b7f4552433732313a20617070726f76616c20746f2063757272656e74206f776e6560008201527f7200000000000000000000000000000000000000000000000000000000000000602082015250565b7f4552433732313a207472616e736665722063616c6c6572206973206e6f74206f60008201527f776e6572206e6f7220617070726f766564000000000000000000000000000000602082015250565b7f5265656e7472616e637947756172643a207265656e7472616e742063616c6c00600082015250565b613b3081613393565b8114613b3b57600080fd5b50565b613b47816133b7565b8114613b5257600080fd5b50565b613b5e816133c3565b8114613b6957600080fd5b50565b613b758161340f565b8114613b8057600080fd5b5056fea2646970667358221220e654df34520d9912d5090c40adac688bda2b4cf097d03cffaee1357afc328de164736f6c63430008040033",
  "linkReferences": {},
  "deployedLinkReferences": {}
}