{
  "_format": "hh-sol-artifact-1",
  "contractName": "Marketplace",
  "sourceName": "src/backend/contracts/Marketplace.sol",
  "abi": [
    {
      "inputs": [
        {
          "internalType": "uint256",
          "name": "_feePercent",
          "type": "uint256"
        }
      ],
      "stateMutability": "nonpayable",
      "type": "constructor"
    },
    {
      "anonymous": false,
      "inputs": [
        {
          "indexed": true,
          "internalType": "address",
          "name": "sender",
          "type": "address"
        },
        {
          "indexed": false,
          "internalType": "uint256",
          "name": "amount",
          "type": "uint256"
        }
      ],
      "name": "Bid",
      "type": "event"
    },
    {
      "anonymous": false,
      "inputs": [
        {
          "indexed": false,
          "internalType": "uint256",
          "name": "itemId",
          "type": "uint256"
        },
        {
          "indexed": true,
          "internalType": "address",
          "name": "nft",
          "type": "address"
        },
        {
          "indexed": false,
          "internalType": "uint256",
          "name": "tokenId",
          "type": "uint256"
        },
        {
          "indexed": false,
          "internalType": "uint256",
          "name": "price",
          "type": "uint256"
        },
        {
          "indexed": true,
          "internalType": "address",
          "name": "seller",
          "type": "address"
        },
        {
          "indexed": true,
          "internalType": "address",
          "name": "buyer",
          "type": "address"
        }
      ],
      "name": "Bought",
      "type": "event"
    },
    {
      "anonymous": false,
      "inputs": [
        {
          "indexed": false,
          "internalType": "address",
          "name": "winner",
          "type": "address"
        },
        {
          "indexed": false,
          "internalType": "uint256",
          "name": "amount",
          "type": "uint256"
        }
      ],
      "name": "End",
      "type": "event"
    },
    {
      "anonymous": false,
      "inputs": [
        {
          "indexed": false,
          "internalType": "uint256",
          "name": "itemId",
          "type": "uint256"
        },
        {
          "indexed": true,
          "internalType": "address",
          "name": "nft",
          "type": "address"
        },
        {
          "indexed": false,
          "internalType": "uint256",
          "name": "tokenId",
          "type": "uint256"
        },
        {
          "indexed": false,
          "internalType": "uint256",
          "name": "price",
          "type": "uint256"
        },
        {
          "indexed": true,
          "internalType": "address",
          "name": "seller",
          "type": "address"
        }
      ],
      "name": "Offered",
      "type": "event"
    },
    {
      "inputs": [
        {
          "internalType": "uint256",
          "name": "_itemId",
          "type": "uint256"
        }
      ],
      "name": "bid",
      "outputs": [],
      "stateMutability": "payable",
      "type": "function"
    },
    {
      "inputs": [
        {
          "internalType": "uint256",
          "name": "_itemId",
          "type": "uint256"
        }
      ],
      "name": "end",
      "outputs": [],
      "stateMutability": "nonpayable",
      "type": "function"
    },
    {
      "inputs": [],
      "name": "feeAccount",
      "outputs": [
        {
          "internalType": "address payable",
          "name": "",
          "type": "address"
        }
      ],
      "stateMutability": "view",
      "type": "function"
    },
    {
      "inputs": [],
      "name": "feePercent",
      "outputs": [
        {
          "internalType": "uint256",
          "name": "",
          "type": "uint256"
        }
      ],
      "stateMutability": "view",
      "type": "function"
    },
    {
      "inputs": [
        {
          "internalType": "uint256",
          "name": "_itemId",
          "type": "uint256"
        }
      ],
      "name": "getCurrentBid",
      "outputs": [
        {
          "internalType": "uint256",
          "name": "",
          "type": "uint256"
        }
      ],
      "stateMutability": "view",
      "type": "function"
    },
    {
      "inputs": [
        {
          "internalType": "uint256",
          "name": "_itemId",
          "type": "uint256"
        }
      ],
      "name": "getTotalPrice",
      "outputs": [
        {
          "internalType": "uint256",
          "name": "",
          "type": "uint256"
        }
      ],
      "stateMutability": "view",
      "type": "function"
    },
    {
      "inputs": [],
      "name": "highestBid",
      "outputs": [
        {
          "internalType": "uint256",
          "name": "",
          "type": "uint256"
        }
      ],
      "stateMutability": "view",
      "type": "function"
    },
    {
      "inputs": [],
      "name": "highestBidder",
      "outputs": [
        {
          "internalType": "address",
          "name": "",
          "type": "address"
        }
      ],
      "stateMutability": "view",
      "type": "function"
    },
    {
      "inputs": [],
      "name": "itemCount",
      "outputs": [
        {
          "internalType": "uint256",
          "name": "",
          "type": "uint256"
        }
      ],
      "stateMutability": "view",
      "type": "function"
    },
    {
      "inputs": [
        {
          "internalType": "uint256",
          "name": "",
          "type": "uint256"
        }
      ],
      "name": "items",
      "outputs": [
        {
          "internalType": "uint256",
          "name": "itemId",
          "type": "uint256"
        },
        {
          "internalType": "contract IERC721",
          "name": "nft",
          "type": "address"
        },
        {
          "internalType": "uint256",
          "name": "tokenId",
          "type": "uint256"
        },
        {
          "internalType": "uint256",
          "name": "bids",
          "type": "uint256"
        },
        {
          "internalType": "address payable",
          "name": "seller",
          "type": "address"
        },
        {
          "internalType": "bool",
          "name": "sold",
          "type": "bool"
        }
      ],
      "stateMutability": "view",
      "type": "function"
    },
    {
      "inputs": [
        {
          "internalType": "contract IERC721",
          "name": "_nft",
          "type": "address"
        },
        {
          "internalType": "uint256",
          "name": "_tokenId",
          "type": "uint256"
        },
        {
          "internalType": "uint256",
          "name": "_price",
          "type": "uint256"
        }
      ],
      "name": "makeItem",
      "outputs": [],
      "stateMutability": "nonpayable",
      "type": "function"
    },
    {
      "inputs": [
        {
          "internalType": "uint256",
          "name": "_itemId",
          "type": "uint256"
        }
      ],
      "name": "purchaseItem",
      "outputs": [],
      "stateMutability": "payable",
      "type": "function"
    }
  ],
  "bytecode": "0x60c06040523480156200001157600080fd5b5060405162001a0a38038062001a0a83398181016040528101906200003791906200009c565b60016000819055503373ffffffffffffffffffffffffffffffffffffffff1660808173ffffffffffffffffffffffffffffffffffffffff1660601b815250508060a0818152505050620000ec565b6000815190506200009681620000d2565b92915050565b600060208284031215620000af57600080fd5b6000620000bf8482850162000085565b91505092915050565b6000819050919050565b620000dd81620000c8565b8114620000e957600080fd5b50565b60805160601c60a0516118e06200012a6000396000818161084e0152610925015260008181610446015281816108240152610b4b01526118e06000f3fe6080604052600436106100a75760003560e01c8063bfb231d211610064578063bfb231d21461019d578063ca7dd375146101df578063d38ea5bf1461021c578063d57bde7914610238578063da4e364f14610263578063fa00afc7146102a0576100a7565b80630ad24528146100ac578063454a2ab3146100d557806365e17c9d146100f15780636bfb0d011461011c5780637fd6f15c1461014757806391f9015714610172575b600080fd5b3480156100b857600080fd5b506100d360048036038101906100ce91906110cc565b6102c9565b005b6100ef60048036038101906100ea91906110cc565b6106b3565b005b3480156100fd57600080fd5b50610106610822565b604051610113919061125f565b60405180910390f35b34801561012857600080fd5b50610131610846565b60405161013e91906113f1565b60405180910390f35b34801561015357600080fd5b5061015c61084c565b60405161016991906113f1565b60405180910390f35b34801561017e57600080fd5b50610187610870565b6040516101949190611244565b60405180910390f35b3480156101a957600080fd5b506101c460048036038101906101bf91906110cc565b610896565b6040516101d69695949392919061140c565b60405180910390f35b3480156101eb57600080fd5b50610206600480360381019061020191906110cc565b61091f565b60405161021391906113f1565b60405180910390f35b610236600480360381019061023191906110cc565b610982565b005b34801561024457600080fd5b5061024d610d50565b60405161025a91906113f1565b60405180910390f35b34801561026f57600080fd5b5061028a600480360381019061028591906110cc565b610d56565b60405161029791906113f1565b60405180910390f35b3480156102ac57600080fd5b506102c760048036038101906102c2919061107d565b610d81565b005b60006102d48261091f565b905060006004600084815260200190815260200160002090508060040160009054906101000a900473ffffffffffffffffffffffffffffffffffffffff1673ffffffffffffffffffffffffffffffffffffffff163373ffffffffffffffffffffffffffffffffffffffff161461037f576040517f08c379a000000000000000000000000000000000000000000000000000000000815260040161037690611351565b60405180910390fd5b600073ffffffffffffffffffffffffffffffffffffffff16600260009054906101000a900473ffffffffffffffffffffffffffffffffffffffff1673ffffffffffffffffffffffffffffffffffffffff1614610595578060040160009054906101000a900473ffffffffffffffffffffffffffffffffffffffff1673ffffffffffffffffffffffffffffffffffffffff166108fc82600301549081150290604051600060405180830381858888f19350505050158015610443573d6000803e3d6000fd5b507f000000000000000000000000000000000000000000000000000000000000000073ffffffffffffffffffffffffffffffffffffffff166108fc82600301548461048e9190611596565b9081150290604051600060405180830381858888f193505050501580156104b9573d6000803e3d6000fd5b5060018160040160146101000a81548160ff0219169083151502179055508060010160009054906101000a900473ffffffffffffffffffffffffffffffffffffffff1673ffffffffffffffffffffffffffffffffffffffff166342842e0e30600260009054906101000a900473ffffffffffffffffffffffffffffffffffffffff1684600201546040518463ffffffff1660e01b815260040161055e939291906112b1565b600060405180830381600087803b15801561057857600080fd5b505af115801561058c573d6000803e3d6000fd5b50505050610651565b8060010160009054906101000a900473ffffffffffffffffffffffffffffffffffffffff1673ffffffffffffffffffffffffffffffffffffffff166342842e0e308360040160009054906101000a900473ffffffffffffffffffffffffffffffffffffffff1684600201546040518463ffffffff1660e01b815260040161061e9392919061127a565b600060405180830381600087803b15801561063857600080fd5b505af115801561064c573d6000803e3d6000fd5b505050505b7f7d7570b046e5ead3a4f3fbc9fa2445113625a1e79823776146316bafed6b8cc5600260009054906101000a900473ffffffffffffffffffffffffffffffffffffffff166003546040516106a69291906112e8565b60405180910390a1505050565b6106bc81610d56565b34116106fd576040517f08c379a00000000000000000000000000000000000000000000000000000000081526004016106f490611371565b60405180910390fd5b6000600460008381526020019081526020016000209050600073ffffffffffffffffffffffffffffffffffffffff16600260009054906101000a900473ffffffffffffffffffffffffffffffffffffffff1673ffffffffffffffffffffffffffffffffffffffff16146107885760035481600301600082825461078091906114b5565b925050819055505b33600260006101000a81548173ffffffffffffffffffffffffffffffffffffffff021916908373ffffffffffffffffffffffffffffffffffffffff160217905550346003819055503373ffffffffffffffffffffffffffffffffffffffff167fe684a55f31b79eca403df938249029212a5925ec6be8012e099b45bc1019e5d23460405161081691906113f1565b60405180910390a25050565b7f000000000000000000000000000000000000000000000000000000000000000081565b60015481565b7f000000000000000000000000000000000000000000000000000000000000000081565b600260009054906101000a900473ffffffffffffffffffffffffffffffffffffffff1681565b60046020528060005260406000206000915090508060000154908060010160009054906101000a900473ffffffffffffffffffffffffffffffffffffffff16908060020154908060030154908060040160009054906101000a900473ffffffffffffffffffffffffffffffffffffffff16908060040160149054906101000a900460ff16905086565b600060647f0000000000000000000000000000000000000000000000000000000000000000606461095091906114b5565b6004600085815260200190815260200160002060030154610971919061153c565b61097b919061150b565b9050919050565b600260005414156109c8576040517f08c379a00000000000000000000000000000000000000000000000000000000081526004016109bf906113d1565b60405180910390fd5b600260008190555060006109db8261091f565b90506000600460008481526020019081526020016000209050600083118015610a0657506001548311155b610a45576040517f08c379a0000000000000000000000000000000000000000000000000000000008152600401610a3c906113b1565b60405180910390fd5b81341015610a88576040517f08c379a0000000000000000000000000000000000000000000000000000000008152600401610a7f90611391565b60405180910390fd5b8060040160149054906101000a900460ff1615610ada576040517f08c379a0000000000000000000000000000000000000000000000000000000008152600401610ad190611311565b60405180910390fd5b8060040160009054906101000a900473ffffffffffffffffffffffffffffffffffffffff1673ffffffffffffffffffffffffffffffffffffffff166108fc82600301549081150290604051600060405180830381858888f19350505050158015610b48573d6000803e3d6000fd5b507f000000000000000000000000000000000000000000000000000000000000000073ffffffffffffffffffffffffffffffffffffffff166108fc826003015484610b939190611596565b9081150290604051600060405180830381858888f19350505050158015610bbe573d6000803e3d6000fd5b5060018160040160146101000a81548160ff0219169083151502179055508060010160009054906101000a900473ffffffffffffffffffffffffffffffffffffffff1673ffffffffffffffffffffffffffffffffffffffff166323b872dd303384600201546040518463ffffffff1660e01b8152600401610c41939291906112b1565b600060405180830381600087803b158015610c5b57600080fd5b505af1158015610c6f573d6000803e3d6000fd5b505050503373ffffffffffffffffffffffffffffffffffffffff168160040160009054906101000a900473ffffffffffffffffffffffffffffffffffffffff1673ffffffffffffffffffffffffffffffffffffffff168260010160009054906101000a900473ffffffffffffffffffffffffffffffffffffffff1673ffffffffffffffffffffffffffffffffffffffff167f8b4c9c8a607d67b321582dd8461041b1dc2ceeca70c8b7f37f8e02095cf2e76d8685600201548660030154604051610d3b9392919061146d565b60405180910390a45050600160008190555050565b60035481565b6000806004600084815260200190815260200160002090506000816003015490508092505050919050565b60026000541415610dc7576040517f08c379a0000000000000000000000000000000000000000000000000000000008152600401610dbe906113d1565b60405180910390fd5b600260008190555060008111610e12576040517f08c379a0000000000000000000000000000000000000000000000000000000008152600401610e0990611331565b60405180910390fd5b60016000815480929190610e2590611690565b91905055508273ffffffffffffffffffffffffffffffffffffffff166323b872dd3330856040518463ffffffff1660e01b8152600401610e67939291906112b1565b600060405180830381600087803b158015610e8157600080fd5b505af1158015610e95573d6000803e3d6000fd5b505050506040518060c0016040528060015481526020018473ffffffffffffffffffffffffffffffffffffffff1681526020018381526020018281526020013373ffffffffffffffffffffffffffffffffffffffff168152602001600015158152506004600060015481526020019081526020016000206000820151816000015560208201518160010160006101000a81548173ffffffffffffffffffffffffffffffffffffffff021916908373ffffffffffffffffffffffffffffffffffffffff160217905550604082015181600201556060820151816003015560808201518160040160006101000a81548173ffffffffffffffffffffffffffffffffffffffff021916908373ffffffffffffffffffffffffffffffffffffffff16021790555060a08201518160040160146101000a81548160ff0219169083151502179055509050503373ffffffffffffffffffffffffffffffffffffffff168373ffffffffffffffffffffffffffffffffffffffff167f655a0cf9c8db81512be9a76dc1c5ae5380b8816ce6ad659cd61b715e2999d59a600154858560405161103e9392919061146d565b60405180910390a36001600081905550505050565b6000813590506110628161187c565b92915050565b60008135905061107781611893565b92915050565b60008060006060848603121561109257600080fd5b60006110a086828701611053565b93505060206110b186828701611068565b92505060406110c286828701611068565b9150509250925092565b6000602082840312156110de57600080fd5b60006110ec84828501611068565b91505092915050565b6110fe81611636565b82525050565b61110d816115dc565b82525050565b61111c816115ca565b82525050565b61112b816115ee565b82525050565b61113a81611648565b82525050565b600061114d6011836114a4565b915061115882611737565b602082019050919050565b6000611170601f836114a4565b915061117b82611760565b602082019050919050565b6000611193600e836114a4565b915061119e82611789565b602082019050919050565b60006111b6600f836114a4565b91506111c1826117b2565b602082019050919050565b60006111d96033836114a4565b91506111e4826117db565b604082019050919050565b60006111fc6012836114a4565b91506112078261182a565b602082019050919050565b600061121f601f836114a4565b915061122a82611853565b602082019050919050565b61123e8161162c565b82525050565b60006020820190506112596000830184611113565b92915050565b60006020820190506112746000830184611104565b92915050565b600060608201905061128f6000830186611113565b61129c60208301856110f5565b6112a96040830184611235565b949350505050565b60006060820190506112c66000830186611113565b6112d36020830185611113565b6112e06040830184611235565b949350505050565b60006040820190506112fd6000830185611113565b61130a6020830184611235565b9392505050565b6000602082019050818103600083015261132a81611140565b9050919050565b6000602082019050818103600083015261134a81611163565b9050919050565b6000602082019050818103600083015261136a81611186565b9050919050565b6000602082019050818103600083015261138a816111a9565b9050919050565b600060208201905081810360008301526113aa816111cc565b9050919050565b600060208201905081810360008301526113ca816111ef565b9050919050565b600060208201905081810360008301526113ea81611212565b9050919050565b60006020820190506114066000830184611235565b92915050565b600060c0820190506114216000830189611235565b61142e6020830188611131565b61143b6040830187611235565b6114486060830186611235565b6114556080830185611104565b61146260a0830184611122565b979650505050505050565b60006060820190506114826000830186611235565b61148f6020830185611235565b61149c6040830184611235565b949350505050565b600082825260208201905092915050565b60006114c08261162c565b91506114cb8361162c565b9250827fffffffffffffffffffffffffffffffffffffffffffffffffffffffffffffffff03821115611500576114ff6116d9565b5b828201905092915050565b60006115168261162c565b91506115218361162c565b92508261153157611530611708565b5b828204905092915050565b60006115478261162c565b91506115528361162c565b9250817fffffffffffffffffffffffffffffffffffffffffffffffffffffffffffffffff048311821515161561158b5761158a6116d9565b5b828202905092915050565b60006115a18261162c565b91506115ac8361162c565b9250828210156115bf576115be6116d9565b5b828203905092915050565b60006115d58261160c565b9050919050565b60006115e78261160c565b9050919050565b60008115159050919050565b6000611605826115ca565b9050919050565b600073ffffffffffffffffffffffffffffffffffffffff82169050919050565b6000819050919050565b60006116418261166c565b9050919050565b60006116538261165a565b9050919050565b60006116658261160c565b9050919050565b60006116778261167e565b9050919050565b60006116898261160c565b9050919050565b600061169b8261162c565b91507fffffffffffffffffffffffffffffffffffffffffffffffffffffffffffffffff8214156116ce576116cd6116d9565b5b600182019050919050565b7f4e487b7100000000000000000000000000000000000000000000000000000000600052601160045260246000fd5b7f4e487b7100000000000000000000000000000000000000000000000000000000600052601260045260246000fd5b7f6974656d20616c726561647920736f6c64000000000000000000000000000000600082015250565b7f5072696365206d7573742062652067726561746572207468616e207a65726f00600082015250565b7f4d7573742062652073656c6c6572000000000000000000000000000000000000600082015250565b7f76616c7565203c20686967686573740000000000000000000000000000000000600082015250565b7f6e6f7420656e6f75676820657468657220746f20636f766572206974656d207060008201527f7269636520616e64206d61726b65742066656500000000000000000000000000602082015250565b7f6974656d20646f65736e27742065786973740000000000000000000000000000600082015250565b7f5265656e7472616e637947756172643a207265656e7472616e742063616c6c00600082015250565b611885816115fa565b811461189057600080fd5b50565b61189c8161162c565b81146118a757600080fd5b5056fea2646970667358221220a94b3290de0ed5317bb42d71b64cb3e6c8caeffc996725f7c7928394f854002064736f6c63430008040033",
  "linkReferences": {},
  "deployedLinkReferences": {}
}