{
  "_format": "hh-sol-artifact-1",
  "contractName": "Marketplace",
  "sourceName": "src/backend/contracts/Marketplace.sol",
  "abi": [
    {
      "inputs": [
        {
          "internalType": "uint256",
          "name": "_feePercent",
          "type": "uint256"
        }
      ],
      "stateMutability": "nonpayable",
      "type": "constructor"
    },
    {
      "anonymous": false,
      "inputs": [
        {
          "indexed": true,
          "internalType": "address",
          "name": "owner",
          "type": "address"
        },
        {
          "indexed": true,
          "internalType": "address",
          "name": "approved",
          "type": "address"
        },
        {
          "indexed": true,
          "internalType": "uint256",
          "name": "tokenId",
          "type": "uint256"
        }
      ],
      "name": "Approval",
      "type": "event"
    },
    {
      "anonymous": false,
      "inputs": [
        {
          "indexed": true,
          "internalType": "address",
          "name": "owner",
          "type": "address"
        },
        {
          "indexed": true,
          "internalType": "address",
          "name": "operator",
          "type": "address"
        },
        {
          "indexed": false,
          "internalType": "bool",
          "name": "approved",
          "type": "bool"
        }
      ],
      "name": "ApprovalForAll",
      "type": "event"
    },
    {
      "anonymous": false,
      "inputs": [
        {
          "indexed": true,
          "internalType": "address",
          "name": "sender",
          "type": "address"
        },
        {
          "indexed": false,
          "internalType": "uint256",
          "name": "amount",
          "type": "uint256"
        }
      ],
      "name": "Bid",
      "type": "event"
    },
    {
      "anonymous": false,
      "inputs": [
        {
          "indexed": false,
          "internalType": "uint256",
          "name": "itemId",
          "type": "uint256"
        },
        {
          "indexed": false,
          "internalType": "uint256",
          "name": "tokenId",
          "type": "uint256"
        },
        {
          "indexed": false,
          "internalType": "uint256",
          "name": "price",
          "type": "uint256"
        },
        {
          "indexed": true,
          "internalType": "address",
          "name": "seller",
          "type": "address"
        },
        {
          "indexed": true,
          "internalType": "address",
          "name": "buyer",
          "type": "address"
        }
      ],
      "name": "Bought",
      "type": "event"
    },
    {
      "anonymous": false,
      "inputs": [
        {
          "indexed": false,
          "internalType": "address",
          "name": "winner",
          "type": "address"
        },
        {
          "indexed": false,
          "internalType": "uint256",
          "name": "amount",
          "type": "uint256"
        }
      ],
      "name": "End",
      "type": "event"
    },
    {
      "anonymous": false,
      "inputs": [
        {
          "indexed": false,
          "internalType": "uint256",
          "name": "itemId",
          "type": "uint256"
        },
        {
          "indexed": false,
          "internalType": "uint256",
          "name": "tokenId",
          "type": "uint256"
        },
        {
          "indexed": false,
          "internalType": "uint256",
          "name": "price",
          "type": "uint256"
        },
        {
          "indexed": true,
          "internalType": "address",
          "name": "seller",
          "type": "address"
        }
      ],
      "name": "Offered",
      "type": "event"
    },
    {
      "anonymous": false,
      "inputs": [
        {
          "indexed": true,
          "internalType": "address",
          "name": "from",
          "type": "address"
        },
        {
          "indexed": true,
          "internalType": "address",
          "name": "to",
          "type": "address"
        },
        {
          "indexed": true,
          "internalType": "uint256",
          "name": "tokenId",
          "type": "uint256"
        }
      ],
      "name": "Transfer",
      "type": "event"
    },
    {
      "inputs": [
        {
          "internalType": "address",
          "name": "to",
          "type": "address"
        },
        {
          "internalType": "uint256",
          "name": "tokenId",
          "type": "uint256"
        }
      ],
      "name": "approve",
      "outputs": [],
      "stateMutability": "nonpayable",
      "type": "function"
    },
    {
      "inputs": [
        {
          "internalType": "address",
          "name": "owner",
          "type": "address"
        }
      ],
      "name": "balanceOf",
      "outputs": [
        {
          "internalType": "uint256",
          "name": "",
          "type": "uint256"
        }
      ],
      "stateMutability": "view",
      "type": "function"
    },
    {
      "inputs": [
        {
          "internalType": "uint256",
          "name": "_itemId",
          "type": "uint256"
        }
      ],
      "name": "bid",
      "outputs": [],
      "stateMutability": "payable",
      "type": "function"
    },
    {
      "inputs": [
        {
          "internalType": "uint256",
          "name": "_itemId",
          "type": "uint256"
        }
      ],
      "name": "end",
      "outputs": [],
      "stateMutability": "payable",
      "type": "function"
    },
    {
      "inputs": [],
      "name": "feeAccount",
      "outputs": [
        {
          "internalType": "address payable",
          "name": "",
          "type": "address"
        }
      ],
      "stateMutability": "view",
      "type": "function"
    },
    {
      "inputs": [],
      "name": "feePercent",
      "outputs": [
        {
          "internalType": "uint256",
          "name": "",
          "type": "uint256"
        }
      ],
      "stateMutability": "view",
      "type": "function"
    },
    {
      "inputs": [
        {
          "internalType": "uint256",
          "name": "tokenId",
          "type": "uint256"
        }
      ],
      "name": "getApproved",
      "outputs": [
        {
          "internalType": "address",
          "name": "",
          "type": "address"
        }
      ],
      "stateMutability": "view",
      "type": "function"
    },
    {
      "inputs": [
        {
          "internalType": "uint256",
          "name": "_itemId",
          "type": "uint256"
        }
      ],
      "name": "getCurrentBid",
      "outputs": [
        {
          "internalType": "uint256",
          "name": "",
          "type": "uint256"
        }
      ],
      "stateMutability": "view",
      "type": "function"
    },
    {
      "inputs": [
        {
          "internalType": "uint256",
          "name": "_itemId",
          "type": "uint256"
        }
      ],
      "name": "getTotalPrice",
      "outputs": [
        {
          "internalType": "uint256",
          "name": "",
          "type": "uint256"
        }
      ],
      "stateMutability": "view",
      "type": "function"
    },
    {
      "inputs": [
        {
          "internalType": "uint256",
          "name": "",
          "type": "uint256"
        }
      ],
      "name": "highestBid",
      "outputs": [
        {
          "internalType": "uint256",
          "name": "",
          "type": "uint256"
        }
      ],
      "stateMutability": "view",
      "type": "function"
    },
    {
      "inputs": [
        {
          "internalType": "uint256",
          "name": "",
          "type": "uint256"
        }
      ],
      "name": "highestBidder",
      "outputs": [
        {
          "internalType": "address",
          "name": "",
          "type": "address"
        }
      ],
      "stateMutability": "view",
      "type": "function"
    },
    {
      "inputs": [
        {
          "internalType": "address",
          "name": "owner",
          "type": "address"
        },
        {
          "internalType": "address",
          "name": "operator",
          "type": "address"
        }
      ],
      "name": "isApprovedForAll",
      "outputs": [
        {
          "internalType": "bool",
          "name": "",
          "type": "bool"
        }
      ],
      "stateMutability": "view",
      "type": "function"
    },
    {
      "inputs": [],
      "name": "itemCount",
      "outputs": [
        {
          "internalType": "uint256",
          "name": "",
          "type": "uint256"
        }
      ],
      "stateMutability": "view",
      "type": "function"
    },
    {
      "inputs": [
        {
          "internalType": "uint256",
          "name": "",
          "type": "uint256"
        }
      ],
      "name": "items",
      "outputs": [
        {
          "internalType": "uint256",
          "name": "itemId",
          "type": "uint256"
        },
        {
          "internalType": "uint256",
          "name": "tokenId",
          "type": "uint256"
        },
        {
          "internalType": "uint256",
          "name": "bids",
          "type": "uint256"
        },
        {
          "internalType": "address payable",
          "name": "seller",
          "type": "address"
        },
        {
          "internalType": "bool",
          "name": "sold",
          "type": "bool"
        }
      ],
      "stateMutability": "view",
      "type": "function"
    },
    {
      "inputs": [
        {
          "internalType": "uint256",
          "name": "_tokenId",
          "type": "uint256"
        },
        {
          "internalType": "uint256",
          "name": "_price",
          "type": "uint256"
        }
      ],
      "name": "makeItem",
      "outputs": [],
      "stateMutability": "nonpayable",
      "type": "function"
    },
    {
      "inputs": [
        {
          "internalType": "string",
          "name": "_tokenURI",
          "type": "string"
        },
        {
          "internalType": "uint256",
          "name": "price",
          "type": "uint256"
        }
      ],
      "name": "mint",
      "outputs": [
        {
          "internalType": "uint256",
          "name": "",
          "type": "uint256"
        }
      ],
      "stateMutability": "nonpayable",
      "type": "function"
    },
    {
      "inputs": [],
      "name": "name",
      "outputs": [
        {
          "internalType": "string",
          "name": "",
          "type": "string"
        }
      ],
      "stateMutability": "view",
      "type": "function"
    },
    {
      "inputs": [
        {
          "internalType": "uint256",
          "name": "tokenId",
          "type": "uint256"
        }
      ],
      "name": "ownerOf",
      "outputs": [
        {
          "internalType": "address",
          "name": "",
          "type": "address"
        }
      ],
      "stateMutability": "view",
      "type": "function"
    },
    {
      "inputs": [
        {
          "internalType": "address",
          "name": "from",
          "type": "address"
        },
        {
          "internalType": "address",
          "name": "to",
          "type": "address"
        },
        {
          "internalType": "uint256",
          "name": "tokenId",
          "type": "uint256"
        }
      ],
      "name": "safeTransferFrom",
      "outputs": [],
      "stateMutability": "nonpayable",
      "type": "function"
    },
    {
      "inputs": [
        {
          "internalType": "address",
          "name": "from",
          "type": "address"
        },
        {
          "internalType": "address",
          "name": "to",
          "type": "address"
        },
        {
          "internalType": "uint256",
          "name": "tokenId",
          "type": "uint256"
        },
        {
          "internalType": "bytes",
          "name": "_data",
          "type": "bytes"
        }
      ],
      "name": "safeTransferFrom",
      "outputs": [],
      "stateMutability": "nonpayable",
      "type": "function"
    },
    {
      "inputs": [
        {
          "internalType": "address",
          "name": "operator",
          "type": "address"
        },
        {
          "internalType": "bool",
          "name": "approved",
          "type": "bool"
        }
      ],
      "name": "setApprovalForAll",
      "outputs": [],
      "stateMutability": "nonpayable",
      "type": "function"
    },
    {
      "inputs": [
        {
          "internalType": "bytes4",
          "name": "interfaceId",
          "type": "bytes4"
        }
      ],
      "name": "supportsInterface",
      "outputs": [
        {
          "internalType": "bool",
          "name": "",
          "type": "bool"
        }
      ],
      "stateMutability": "view",
      "type": "function"
    },
    {
      "inputs": [],
      "name": "symbol",
      "outputs": [
        {
          "internalType": "string",
          "name": "",
          "type": "string"
        }
      ],
      "stateMutability": "view",
      "type": "function"
    },
    {
      "inputs": [],
      "name": "tokenCount",
      "outputs": [
        {
          "internalType": "uint256",
          "name": "",
          "type": "uint256"
        }
      ],
      "stateMutability": "view",
      "type": "function"
    },
    {
      "inputs": [
        {
          "internalType": "uint256",
          "name": "tokenId",
          "type": "uint256"
        }
      ],
      "name": "tokenURI",
      "outputs": [
        {
          "internalType": "string",
          "name": "",
          "type": "string"
        }
      ],
      "stateMutability": "view",
      "type": "function"
    },
    {
      "inputs": [
        {
          "internalType": "address",
          "name": "from",
          "type": "address"
        },
        {
          "internalType": "address",
          "name": "to",
          "type": "address"
        },
        {
          "internalType": "uint256",
          "name": "tokenId",
          "type": "uint256"
        }
      ],
      "name": "transferFrom",
      "outputs": [],
      "stateMutability": "nonpayable",
      "type": "function"
    }
  ],
  "bytecode": "0x60c06040523480156200001157600080fd5b5060405162003df738038062003df78339818101604052810190620000379190620001ec565b6040518060400160405280600c81526020017f416c7978204d79737465727900000000000000000000000000000000000000008152506040518060400160405280600381526020017f414c5800000000000000000000000000000000000000000000000000000000008152508160009080519060200190620000bb92919062000125565b508060019080519060200190620000d492919062000125565b50505060016007819055503373ffffffffffffffffffffffffffffffffffffffff1660808173ffffffffffffffffffffffffffffffffffffffff1660601b815250508060a0818152505050620002a1565b828054620001339062000222565b90600052602060002090601f016020900481019282620001575760008555620001a3565b82601f106200017257805160ff1916838001178555620001a3565b82800160010185558215620001a3579182015b82811115620001a257825182559160200191906001019062000185565b5b509050620001b29190620001b6565b5090565b5b80821115620001d1576000816000905550600101620001b7565b5090565b600081519050620001e68162000287565b92915050565b600060208284031215620001ff57600080fd5b60006200020f84828501620001d5565b91505092915050565b6000819050919050565b600060028204905060018216806200023b57607f821691505b6020821081141562000252576200025162000258565b5b50919050565b7f4e487b7100000000000000000000000000000000000000000000000000000000600052602260045260246000fd5b620002928162000218565b81146200029e57600080fd5b50565b60805160601c60a051613b1f620002d8600039600081816113040152611609015260008181610d7c01526112220152613b1f6000f3fe6080604052600436106101815760003560e01c80636bfb0d01116100d1578063b14c63c51161008a578063c87b56dd11610064578063c87b56dd146105a2578063ca7dd375146105df578063da4e364f1461061c578063e985e9c51461065957610181565b8063b14c63c5146104fb578063b88d4fde14610538578063bfb231d21461056157610181565b80636bfb0d01146103e957806370a08231146104145780637fd6f15c1461045157806395d89b411461047c5780639f181b5e146104a7578063a22cb465146104d257610181565b80630ad245281161013e578063451df52e11610118578063451df52e14610328578063454a2ab3146103655780636352211e1461038157806365e17c9d146103be57610181565b80630ad24528146102ba57806323b872dd146102d657806342842e0e146102ff57610181565b806301ffc9a714610186578063056b01ce146101c357806306fdde0314610200578063081812fc1461022b578063095ea7b3146102685780630a50e3be14610291575b600080fd5b34801561019257600080fd5b506101ad60048036038101906101a89190612843565b610696565b6040516101ba9190612db8565b60405180910390f35b3480156101cf57600080fd5b506101ea60048036038101906101e59190612895565b610778565b6040516101f79190613075565b60405180910390f35b34801561020c57600080fd5b506102156107cc565b6040516102229190612dd3565b60405180910390f35b34801561023757600080fd5b50610252600480360381019061024d91906128e9565b61085e565b60405161025f9190612d0d565b60405180910390f35b34801561027457600080fd5b5061028f600480360381019061028a9190612807565b6108e3565b005b34801561029d57600080fd5b506102b860048036038101906102b39190612912565b6109fb565b005b6102d460048036038101906102cf91906128e9565b610bee565b005b3480156102e257600080fd5b506102fd60048036038101906102f89190612701565b610f0c565b005b34801561030b57600080fd5b5061032660048036038101906103219190612701565b610f6c565b005b34801561033457600080fd5b5061034f600480360381019061034a91906128e9565b610f8c565b60405161035c9190612d0d565b60405180910390f35b61037f600480360381019061037a91906128e9565b610fbf565b005b34801561038d57600080fd5b506103a860048036038101906103a391906128e9565b61116e565b6040516103b59190612d0d565b60405180910390f35b3480156103ca57600080fd5b506103d3611220565b6040516103e09190612d28565b60405180910390f35b3480156103f557600080fd5b506103fe611244565b60405161040b9190613075565b60405180910390f35b34801561042057600080fd5b5061043b6004803603810190610436919061269c565b61124a565b6040516104489190613075565b60405180910390f35b34801561045d57600080fd5b50610466611302565b6040516104739190613075565b60405180910390f35b34801561048857600080fd5b50610491611326565b60405161049e9190612dd3565b60405180910390f35b3480156104b357600080fd5b506104bc6113b8565b6040516104c99190613075565b60405180910390f35b3480156104de57600080fd5b506104f960048036038101906104f491906127cb565b6113be565b005b34801561050757600080fd5b50610522600480360381019061051d91906128e9565b6113d4565b60405161052f9190613075565b60405180910390f35b34801561054457600080fd5b5061055f600480360381019061055a9190612750565b6113ec565b005b34801561056d57600080fd5b50610588600480360381019061058391906128e9565b61144e565b6040516105999594939291906130c7565b60405180910390f35b3480156105ae57600080fd5b506105c960048036038101906105c491906128e9565b6114b1565b6040516105d69190612dd3565b60405180910390f35b3480156105eb57600080fd5b50610606600480360381019061060191906128e9565b611603565b6040516106139190613075565b60405180910390f35b34801561062857600080fd5b50610643600480360381019061063e91906128e9565b611666565b6040516106509190613075565b60405180910390f35b34801561066557600080fd5b50610680600480360381019061067b91906126c5565b611691565b60405161068d9190612db8565b60405180910390f35b60007f80ac58cd000000000000000000000000000000000000000000000000000000007bffffffffffffffffffffffffffffffffffffffffffffffffffffffff1916827bffffffffffffffffffffffffffffffffffffffffffffffffffffffff1916148061076157507f5b5e139f000000000000000000000000000000000000000000000000000000007bffffffffffffffffffffffffffffffffffffffffffffffffffffffff1916827bffffffffffffffffffffffffffffffffffffffffffffffffffffffff1916145b80610771575061077082611725565b5b9050919050565b60006008600081548092919061078d90613424565b919050555061079e3360085461178f565b6107aa600854846117ad565b6107b53060016113be565b6107c1600854836109fb565b600854905092915050565b6060600080546107db906133c1565b80601f0160208091040260200160405190810160405280929190818152602001828054610807906133c1565b80156108545780601f1061082957610100808354040283529160200191610854565b820191906000526020600020905b81548152906001019060200180831161083757829003601f168201915b5050505050905090565b600061086982611821565b6108a8576040517f08c379a000000000000000000000000000000000000000000000000000000000815260040161089f90612fd5565b60405180910390fd5b6004600083815260200190815260200160002060009054906101000a900473ffffffffffffffffffffffffffffffffffffffff169050919050565b60006108ee8261116e565b90508073ffffffffffffffffffffffffffffffffffffffff168373ffffffffffffffffffffffffffffffffffffffff16141561095f576040517f08c379a000000000000000000000000000000000000000000000000000000000815260040161095690613015565b60405180910390fd5b8073ffffffffffffffffffffffffffffffffffffffff1661097e61188d565b73ffffffffffffffffffffffffffffffffffffffff1614806109ad57506109ac816109a761188d565b611691565b5b6109ec576040517f08c379a00000000000000000000000000000000000000000000000000000000081526004016109e390612f15565b60405180910390fd5b6109f68383611895565b505050565b60026007541415610a41576040517f08c379a0000000000000000000000000000000000000000000000000000000008152600401610a3890613055565b60405180910390fd5b600260078190555060008111610a8c576040517f08c379a0000000000000000000000000000000000000000000000000000000008152600401610a8390612df5565b60405180910390fd5b60096000815480929190610a9f90613424565b9190505550610aaf333084610f0c565b6040518060a0016040528060095481526020018381526020018281526020013373ffffffffffffffffffffffffffffffffffffffff16815260200160001515815250600c6000600954815260200190815260200160002060008201518160000155602082015181600101556040820151816002015560608201518160030160006101000a81548173ffffffffffffffffffffffffffffffffffffffff021916908373ffffffffffffffffffffffffffffffffffffffff16021790555060808201518160030160146101000a81548160ff0219169083151502179055509050503373ffffffffffffffffffffffffffffffffffffffff167fd846d2cfaaa23a2723be747ef18b5d16a1484d901d581da4843cc27638c862ad6009548484604051610bda93929190613090565b60405180910390a260016007819055505050565b6000610bf982611603565b90506000600c600084815260200190815260200160002090508060030160009054906101000a900473ffffffffffffffffffffffffffffffffffffffff1673ffffffffffffffffffffffffffffffffffffffff163373ffffffffffffffffffffffffffffffffffffffff1614610ca4576040517f08c379a0000000000000000000000000000000000000000000000000000000008152600401610c9b90612e55565b60405180910390fd5b600073ffffffffffffffffffffffffffffffffffffffff16600a600085815260200190815260200160002060009054906101000a900473ffffffffffffffffffffffffffffffffffffffff1673ffffffffffffffffffffffffffffffffffffffff1614610e54578060030160009054906101000a900473ffffffffffffffffffffffffffffffffffffffff1673ffffffffffffffffffffffffffffffffffffffff166108fc82600201549081150290604051600060405180830381858888f19350505050158015610d79573d6000803e3d6000fd5b507f000000000000000000000000000000000000000000000000000000000000000073ffffffffffffffffffffffffffffffffffffffff166108fc826002015484610dc491906132c5565b9081150290604051600060405180830381858888f19350505050158015610def573d6000803e3d6000fd5b5060018160030160146101000a81548160ff021916908315150217905550610e4f30600a600086815260200190815260200160002060009054906101000a900473ffffffffffffffffffffffffffffffffffffffff16836001015461194e565b610e88565b610e87308260030160009054906101000a900473ffffffffffffffffffffffffffffffffffffffff16836001015461194e565b5b7f7d7570b046e5ead3a4f3fbc9fa2445113625a1e79823776146316bafed6b8cc5600a600085815260200190815260200160002060009054906101000a900473ffffffffffffffffffffffffffffffffffffffff16600b600086815260200190815260200160002054604051610eff929190612d8f565b60405180910390a1505050565b610f1d610f1761188d565b82611bb5565b610f5c576040517f08c379a0000000000000000000000000000000000000000000000000000000008152600401610f5390613035565b60405180910390fd5b610f6783838361194e565b505050565b610f87838383604051806020016040528060008152506113ec565b505050565b600a6020528060005260406000206000915054906101000a900473ffffffffffffffffffffffffffffffffffffffff1681565b6000600c60008381526020019081526020016000209050610fdf82611666565b341180610fef5750806002015434115b61102e576040517f08c379a000000000000000000000000000000000000000000000000000000000815260040161102590612e95565b60405180910390fd5b33600a600084815260200190815260200160002060006101000a81548173ffffffffffffffffffffffffffffffffffffffff021916908373ffffffffffffffffffffffffffffffffffffffff16021790555034600b600084815260200190815260200160002081905550600073ffffffffffffffffffffffffffffffffffffffff16600a600084815260200190815260200160002060009054906101000a900473ffffffffffffffffffffffffffffffffffffffff1673ffffffffffffffffffffffffffffffffffffffff161461111c57600b60008381526020019081526020016000205481600201819055505b3373ffffffffffffffffffffffffffffffffffffffff167fe684a55f31b79eca403df938249029212a5925ec6be8012e099b45bc1019e5d2346040516111629190613075565b60405180910390a25050565b6000806002600084815260200190815260200160002060009054906101000a900473ffffffffffffffffffffffffffffffffffffffff169050600073ffffffffffffffffffffffffffffffffffffffff168173ffffffffffffffffffffffffffffffffffffffff161415611217576040517f08c379a000000000000000000000000000000000000000000000000000000000815260040161120e90612f55565b60405180910390fd5b80915050919050565b7f000000000000000000000000000000000000000000000000000000000000000081565b60095481565b60008073ffffffffffffffffffffffffffffffffffffffff168273ffffffffffffffffffffffffffffffffffffffff1614156112bb576040517f08c379a00000000000000000000000000000000000000000000000000000000081526004016112b290612f35565b60405180910390fd5b600360008373ffffffffffffffffffffffffffffffffffffffff1673ffffffffffffffffffffffffffffffffffffffff168152602001908152602001600020549050919050565b7f000000000000000000000000000000000000000000000000000000000000000081565b606060018054611335906133c1565b80601f0160208091040260200160405190810160405280929190818152602001828054611361906133c1565b80156113ae5780601f10611383576101008083540402835291602001916113ae565b820191906000526020600020905b81548152906001019060200180831161139157829003601f168201915b5050505050905090565b60085481565b6113d06113c961188d565b8383611c93565b5050565b600b6020528060005260406000206000915090505481565b6113fd6113f761188d565b83611bb5565b61143c576040517f08c379a000000000000000000000000000000000000000000000000000000000815260040161143390613035565b60405180910390fd5b61144884848484611e00565b50505050565b600c6020528060005260406000206000915090508060000154908060010154908060020154908060030160009054906101000a900473ffffffffffffffffffffffffffffffffffffffff16908060030160149054906101000a900460ff16905085565b60606114bc82611821565b6114fb576040517f08c379a00000000000000000000000000000000000000000000000000000000081526004016114f290612fb5565b60405180910390fd5b600060066000848152602001908152602001600020805461151b906133c1565b80601f0160208091040260200160405190810160405280929190818152602001828054611547906133c1565b80156115945780601f1061156957610100808354040283529160200191611594565b820191906000526020600020905b81548152906001019060200180831161157757829003601f168201915b5050505050905060006115a5611e5c565b90506000815114156115bb5781925050506115fe565b6000825111156115f05780826040516020016115d8929190612ce9565b604051602081830303815290604052925050506115fe565b6115f984611e73565b925050505b919050565b600060647f0000000000000000000000000000000000000000000000000000000000000000606461163491906131e4565b600c600085815260200190815260200160002060020154611655919061326b565b61165f919061323a565b9050919050565b600080600c600084815260200190815260200160002090506000816002015490508092505050919050565b6000600560008473ffffffffffffffffffffffffffffffffffffffff1673ffffffffffffffffffffffffffffffffffffffff16815260200190815260200160002060008373ffffffffffffffffffffffffffffffffffffffff1673ffffffffffffffffffffffffffffffffffffffff16815260200190815260200160002060009054906101000a900460ff16905092915050565b60007f01ffc9a7000000000000000000000000000000000000000000000000000000007bffffffffffffffffffffffffffffffffffffffffffffffffffffffff1916827bffffffffffffffffffffffffffffffffffffffffffffffffffffffff1916149050919050565b6117a9828260405180602001604052806000815250611f1a565b5050565b6117b682611821565b6117f5576040517f08c379a00000000000000000000000000000000000000000000000000000000081526004016117ec90612f75565b60405180910390fd5b8060066000848152602001908152602001600020908051906020019061181c9291906124c0565b505050565b60008073ffffffffffffffffffffffffffffffffffffffff166002600084815260200190815260200160002060009054906101000a900473ffffffffffffffffffffffffffffffffffffffff1673ffffffffffffffffffffffffffffffffffffffff1614159050919050565b600033905090565b816004600083815260200190815260200160002060006101000a81548173ffffffffffffffffffffffffffffffffffffffff021916908373ffffffffffffffffffffffffffffffffffffffff160217905550808273ffffffffffffffffffffffffffffffffffffffff166119088361116e565b73ffffffffffffffffffffffffffffffffffffffff167f8c5be1e5ebec7d5bd14f71427d1e84f3dd0314c0f7b2291e5b200ac8c7c3b92560405160405180910390a45050565b8273ffffffffffffffffffffffffffffffffffffffff1661196e8261116e565b73ffffffffffffffffffffffffffffffffffffffff16146119c4576040517f08c379a00000000000000000000000000000000000000000000000000000000081526004016119bb90612e35565b60405180910390fd5b600073ffffffffffffffffffffffffffffffffffffffff168273ffffffffffffffffffffffffffffffffffffffff161415611a34576040517f08c379a0000000000000000000000000000000000000000000000000000000008152600401611a2b90612eb5565b60405180910390fd5b611a3f838383611f75565b611a4a600082611895565b6001600360008573ffffffffffffffffffffffffffffffffffffffff1673ffffffffffffffffffffffffffffffffffffffff1681526020019081526020016000206000828254611a9a91906132c5565b925050819055506001600360008473ffffffffffffffffffffffffffffffffffffffff1673ffffffffffffffffffffffffffffffffffffffff1681526020019081526020016000206000828254611af191906131e4565b92505081905550816002600083815260200190815260200160002060006101000a81548173ffffffffffffffffffffffffffffffffffffffff021916908373ffffffffffffffffffffffffffffffffffffffff160217905550808273ffffffffffffffffffffffffffffffffffffffff168473ffffffffffffffffffffffffffffffffffffffff167fddf252ad1be2c89b69c2b068fc378daa952ba7f163c4a11628f55a4df523b3ef60405160405180910390a4611bb0838383611f7a565b505050565b6000611bc082611821565b611bff576040517f08c379a0000000000000000000000000000000000000000000000000000000008152600401611bf690612ef5565b60405180910390fd5b6000611c0a8361116e565b90508073ffffffffffffffffffffffffffffffffffffffff168473ffffffffffffffffffffffffffffffffffffffff161480611c7957508373ffffffffffffffffffffffffffffffffffffffff16611c618461085e565b73ffffffffffffffffffffffffffffffffffffffff16145b80611c8a5750611c898185611691565b5b91505092915050565b8173ffffffffffffffffffffffffffffffffffffffff168373ffffffffffffffffffffffffffffffffffffffff161415611d02576040517f08c379a0000000000000000000000000000000000000000000000000000000008152600401611cf990612ed5565b60405180910390fd5b80600560008573ffffffffffffffffffffffffffffffffffffffff1673ffffffffffffffffffffffffffffffffffffffff16815260200190815260200160002060008473ffffffffffffffffffffffffffffffffffffffff1673ffffffffffffffffffffffffffffffffffffffff16815260200190815260200160002060006101000a81548160ff0219169083151502179055508173ffffffffffffffffffffffffffffffffffffffff168373ffffffffffffffffffffffffffffffffffffffff167f17307eab39ab6107e8899845ad3d59bd9653f200f220920489ca2b5937696c3183604051611df39190612db8565b60405180910390a3505050565b611e0b84848461194e565b611e1784848484611f7f565b611e56576040517f08c379a0000000000000000000000000000000000000000000000000000000008152600401611e4d90612e15565b60405180910390fd5b50505050565b606060405180602001604052806000815250905090565b6060611e7e82611821565b611ebd576040517f08c379a0000000000000000000000000000000000000000000000000000000008152600401611eb490612ff5565b60405180910390fd5b6000611ec7611e5c565b90506000815111611ee75760405180602001604052806000815250611f12565b80611ef184612116565b604051602001611f02929190612ce9565b6040516020818303038152906040525b915050919050565b611f2483836122c3565b611f316000848484611f7f565b611f70576040517f08c379a0000000000000000000000000000000000000000000000000000000008152600401611f6790612e15565b60405180910390fd5b505050565b505050565b505050565b6000611fa08473ffffffffffffffffffffffffffffffffffffffff1661249d565b15612109578373ffffffffffffffffffffffffffffffffffffffff1663150b7a02611fc961188d565b8786866040518563ffffffff1660e01b8152600401611feb9493929190612d43565b602060405180830381600087803b15801561200557600080fd5b505af192505050801561203657506040513d601f19601f82011682018060405250810190612033919061286c565b60015b6120b9573d8060008114612066576040519150601f19603f3d011682016040523d82523d6000602084013e61206b565b606091505b506000815114156120b1576040517f08c379a00000000000000000000000000000000000000000000000000000000081526004016120a890612e15565b60405180910390fd5b805181602001fd5b63150b7a0260e01b7bffffffffffffffffffffffffffffffffffffffffffffffffffffffff1916817bffffffffffffffffffffffffffffffffffffffffffffffffffffffff19161491505061210e565b600190505b949350505050565b6060600082141561215e576040518060400160405280600181526020017f300000000000000000000000000000000000000000000000000000000000000081525090506122be565b600082905060005b6000821461219057808061217990613424565b915050600a82612189919061323a565b9150612166565b60008167ffffffffffffffff8111156121d2577f4e487b7100000000000000000000000000000000000000000000000000000000600052604160045260246000fd5b6040519080825280601f01601f1916602001820160405280156122045781602001600182028036833780820191505090505b5090505b600085146122b75760018261221d91906132c5565b9150600a8561222c919061346d565b603061223891906131e4565b60f81b818381518110612274577f4e487b7100000000000000000000000000000000000000000000000000000000600052603260045260246000fd5b60200101907effffffffffffffffffffffffffffffffffffffffffffffffffffffffffffff1916908160001a905350600a856122b0919061323a565b9450612208565b8093505050505b919050565b600073ffffffffffffffffffffffffffffffffffffffff168273ffffffffffffffffffffffffffffffffffffffff161415612333576040517f08c379a000000000000000000000000000000000000000000000000000000000815260040161232a90612f95565b60405180910390fd5b61233c81611821565b1561237c576040517f08c379a000000000000000000000000000000000000000000000000000000000815260040161237390612e75565b60405180910390fd5b61238860008383611f75565b6001600360008473ffffffffffffffffffffffffffffffffffffffff1673ffffffffffffffffffffffffffffffffffffffff16815260200190815260200160002060008282546123d891906131e4565b92505081905550816002600083815260200190815260200160002060006101000a81548173ffffffffffffffffffffffffffffffffffffffff021916908373ffffffffffffffffffffffffffffffffffffffff160217905550808273ffffffffffffffffffffffffffffffffffffffff16600073ffffffffffffffffffffffffffffffffffffffff167fddf252ad1be2c89b69c2b068fc378daa952ba7f163c4a11628f55a4df523b3ef60405160405180910390a461249960008383611f7a565b5050565b6000808273ffffffffffffffffffffffffffffffffffffffff163b119050919050565b8280546124cc906133c1565b90600052602060002090601f0160209004810192826124ee5760008555612535565b82601f1061250757805160ff1916838001178555612535565b82800160010185558215612535579182015b82811115612534578251825591602001919060010190612519565b5b5090506125429190612546565b5090565b5b8082111561255f576000816000905550600101612547565b5090565b60006125766125718461313f565b61311a565b90508281526020810184848401111561258e57600080fd5b61259984828561337f565b509392505050565b60006125b46125af84613170565b61311a565b9050828152602081018484840111156125cc57600080fd5b6125d784828561337f565b509392505050565b6000813590506125ee81613a8d565b92915050565b60008135905061260381613aa4565b92915050565b60008135905061261881613abb565b92915050565b60008151905061262d81613abb565b92915050565b600082601f83011261264457600080fd5b8135612654848260208601612563565b91505092915050565b600082601f83011261266e57600080fd5b813561267e8482602086016125a1565b91505092915050565b60008135905061269681613ad2565b92915050565b6000602082840312156126ae57600080fd5b60006126bc848285016125df565b91505092915050565b600080604083850312156126d857600080fd5b60006126e6858286016125df565b92505060206126f7858286016125df565b9150509250929050565b60008060006060848603121561271657600080fd5b6000612724868287016125df565b9350506020612735868287016125df565b925050604061274686828701612687565b9150509250925092565b6000806000806080858703121561276657600080fd5b6000612774878288016125df565b9450506020612785878288016125df565b935050604061279687828801612687565b925050606085013567ffffffffffffffff8111156127b357600080fd5b6127bf87828801612633565b91505092959194509250565b600080604083850312156127de57600080fd5b60006127ec858286016125df565b92505060206127fd858286016125f4565b9150509250929050565b6000806040838503121561281a57600080fd5b6000612828858286016125df565b925050602061283985828601612687565b9150509250929050565b60006020828403121561285557600080fd5b600061286384828501612609565b91505092915050565b60006020828403121561287e57600080fd5b600061288c8482850161261e565b91505092915050565b600080604083850312156128a857600080fd5b600083013567ffffffffffffffff8111156128c257600080fd5b6128ce8582860161265d565b92505060206128df85828601612687565b9150509250929050565b6000602082840312156128fb57600080fd5b600061290984828501612687565b91505092915050565b6000806040838503121561292557600080fd5b600061293385828601612687565b925050602061294485828601612687565b9150509250929050565b6129578161330b565b82525050565b612966816132f9565b82525050565b6129758161331d565b82525050565b6000612986826131a1565b61299081856131b7565b93506129a081856020860161338e565b6129a98161355a565b840191505092915050565b60006129bf826131ac565b6129c981856131c8565b93506129d981856020860161338e565b6129e28161355a565b840191505092915050565b60006129f8826131ac565b612a0281856131d9565b9350612a1281856020860161338e565b80840191505092915050565b6000612a2b601f836131c8565b9150612a368261356b565b602082019050919050565b6000612a4e6032836131c8565b9150612a5982613594565b604082019050919050565b6000612a716025836131c8565b9150612a7c826135e3565b604082019050919050565b6000612a94600e836131c8565b9150612a9f82613632565b602082019050919050565b6000612ab7601c836131c8565b9150612ac28261365b565b602082019050919050565b6000612ada600f836131c8565b9150612ae582613684565b602082019050919050565b6000612afd6024836131c8565b9150612b08826136ad565b604082019050919050565b6000612b206019836131c8565b9150612b2b826136fc565b602082019050919050565b6000612b43602c836131c8565b9150612b4e82613725565b604082019050919050565b6000612b666038836131c8565b9150612b7182613774565b604082019050919050565b6000612b89602a836131c8565b9150612b94826137c3565b604082019050919050565b6000612bac6029836131c8565b9150612bb782613812565b604082019050919050565b6000612bcf602e836131c8565b9150612bda82613861565b604082019050919050565b6000612bf26020836131c8565b9150612bfd826138b0565b602082019050919050565b6000612c156031836131c8565b9150612c20826138d9565b604082019050919050565b6000612c38602c836131c8565b9150612c4382613928565b604082019050919050565b6000612c5b602f836131c8565b9150612c6682613977565b604082019050919050565b6000612c7e6021836131c8565b9150612c89826139c6565b604082019050919050565b6000612ca16031836131c8565b9150612cac82613a15565b604082019050919050565b6000612cc4601f836131c8565b9150612ccf82613a64565b602082019050919050565b612ce381613375565b82525050565b6000612cf582856129ed565b9150612d0182846129ed565b91508190509392505050565b6000602082019050612d22600083018461295d565b92915050565b6000602082019050612d3d600083018461294e565b92915050565b6000608082019050612d58600083018761295d565b612d65602083018661295d565b612d726040830185612cda565b8181036060830152612d84818461297b565b905095945050505050565b6000604082019050612da4600083018561295d565b612db16020830184612cda565b9392505050565b6000602082019050612dcd600083018461296c565b92915050565b60006020820190508181036000830152612ded81846129b4565b905092915050565b60006020820190508181036000830152612e0e81612a1e565b9050919050565b60006020820190508181036000830152612e2e81612a41565b9050919050565b60006020820190508181036000830152612e4e81612a64565b9050919050565b60006020820190508181036000830152612e6e81612a87565b9050919050565b60006020820190508181036000830152612e8e81612aaa565b9050919050565b60006020820190508181036000830152612eae81612acd565b9050919050565b60006020820190508181036000830152612ece81612af0565b9050919050565b60006020820190508181036000830152612eee81612b13565b9050919050565b60006020820190508181036000830152612f0e81612b36565b9050919050565b60006020820190508181036000830152612f2e81612b59565b9050919050565b60006020820190508181036000830152612f4e81612b7c565b9050919050565b60006020820190508181036000830152612f6e81612b9f565b9050919050565b60006020820190508181036000830152612f8e81612bc2565b9050919050565b60006020820190508181036000830152612fae81612be5565b9050919050565b60006020820190508181036000830152612fce81612c08565b9050919050565b60006020820190508181036000830152612fee81612c2b565b9050919050565b6000602082019050818103600083015261300e81612c4e565b9050919050565b6000602082019050818103600083015261302e81612c71565b9050919050565b6000602082019050818103600083015261304e81612c94565b9050919050565b6000602082019050818103600083015261306e81612cb7565b9050919050565b600060208201905061308a6000830184612cda565b92915050565b60006060820190506130a56000830186612cda565b6130b26020830185612cda565b6130bf6040830184612cda565b949350505050565b600060a0820190506130dc6000830188612cda565b6130e96020830187612cda565b6130f66040830186612cda565b613103606083018561294e565b613110608083018461296c565b9695505050505050565b6000613124613135565b905061313082826133f3565b919050565b6000604051905090565b600067ffffffffffffffff82111561315a5761315961352b565b5b6131638261355a565b9050602081019050919050565b600067ffffffffffffffff82111561318b5761318a61352b565b5b6131948261355a565b9050602081019050919050565b600081519050919050565b600081519050919050565b600082825260208201905092915050565b600082825260208201905092915050565b600081905092915050565b60006131ef82613375565b91506131fa83613375565b9250827fffffffffffffffffffffffffffffffffffffffffffffffffffffffffffffffff0382111561322f5761322e61349e565b5b828201905092915050565b600061324582613375565b915061325083613375565b9250826132605761325f6134cd565b5b828204905092915050565b600061327682613375565b915061328183613375565b9250817fffffffffffffffffffffffffffffffffffffffffffffffffffffffffffffffff04831182151516156132ba576132b961349e565b5b828202905092915050565b60006132d082613375565b91506132db83613375565b9250828210156132ee576132ed61349e565b5b828203905092915050565b600061330482613355565b9050919050565b600061331682613355565b9050919050565b60008115159050919050565b60007fffffffff0000000000000000000000000000000000000000000000000000000082169050919050565b600073ffffffffffffffffffffffffffffffffffffffff82169050919050565b6000819050919050565b82818337600083830152505050565b60005b838110156133ac578082015181840152602081019050613391565b838111156133bb576000848401525b50505050565b600060028204905060018216806133d957607f821691505b602082108114156133ed576133ec6134fc565b5b50919050565b6133fc8261355a565b810181811067ffffffffffffffff8211171561341b5761341a61352b565b5b80604052505050565b600061342f82613375565b91507fffffffffffffffffffffffffffffffffffffffffffffffffffffffffffffffff8214156134625761346161349e565b5b600182019050919050565b600061347882613375565b915061348383613375565b925082613493576134926134cd565b5b828206905092915050565b7f4e487b7100000000000000000000000000000000000000000000000000000000600052601160045260246000fd5b7f4e487b7100000000000000000000000000000000000000000000000000000000600052601260045260246000fd5b7f4e487b7100000000000000000000000000000000000000000000000000000000600052602260045260246000fd5b7f4e487b7100000000000000000000000000000000000000000000000000000000600052604160045260246000fd5b6000601f19601f8301169050919050565b7f5072696365206d7573742062652067726561746572207468616e207a65726f00600082015250565b7f4552433732313a207472616e7366657220746f206e6f6e20455243373231526560008201527f63656976657220696d706c656d656e7465720000000000000000000000000000602082015250565b7f4552433732313a207472616e736665722066726f6d20696e636f72726563742060008201527f6f776e6572000000000000000000000000000000000000000000000000000000602082015250565b7f4d7573742062652073656c6c6572000000000000000000000000000000000000600082015250565b7f4552433732313a20746f6b656e20616c7265616479206d696e74656400000000600082015250565b7f76616c7565203c20686967686573740000000000000000000000000000000000600082015250565b7f4552433732313a207472616e7366657220746f20746865207a65726f2061646460008201527f7265737300000000000000000000000000000000000000000000000000000000602082015250565b7f4552433732313a20617070726f766520746f2063616c6c657200000000000000600082015250565b7f4552433732313a206f70657261746f7220717565727920666f72206e6f6e657860008201527f697374656e7420746f6b656e0000000000000000000000000000000000000000602082015250565b7f4552433732313a20617070726f76652063616c6c6572206973206e6f74206f7760008201527f6e6572206e6f7220617070726f76656420666f7220616c6c0000000000000000602082015250565b7f4552433732313a2062616c616e636520717565727920666f7220746865207a6560008201527f726f206164647265737300000000000000000000000000000000000000000000602082015250565b7f4552433732313a206f776e657220717565727920666f72206e6f6e657869737460008201527f656e7420746f6b656e0000000000000000000000000000000000000000000000602082015250565b7f45524337323155524953746f726167653a2055524920736574206f66206e6f6e60008201527f6578697374656e7420746f6b656e000000000000000000000000000000000000602082015250565b7f4552433732313a206d696e7420746f20746865207a65726f2061646472657373600082015250565b7f45524337323155524953746f726167653a2055524920717565727920666f722060008201527f6e6f6e6578697374656e7420746f6b656e000000000000000000000000000000602082015250565b7f4552433732313a20617070726f76656420717565727920666f72206e6f6e657860008201527f697374656e7420746f6b656e0000000000000000000000000000000000000000602082015250565b7f4552433732314d657461646174613a2055524920717565727920666f72206e6f60008201527f6e6578697374656e7420746f6b656e0000000000000000000000000000000000602082015250565b7f4552433732313a20617070726f76616c20746f2063757272656e74206f776e6560008201527f7200000000000000000000000000000000000000000000000000000000000000602082015250565b7f4552433732313a207472616e736665722063616c6c6572206973206e6f74206f60008201527f776e6572206e6f7220617070726f766564000000000000000000000000000000602082015250565b7f5265656e7472616e637947756172643a207265656e7472616e742063616c6c00600082015250565b613a96816132f9565b8114613aa157600080fd5b50565b613aad8161331d565b8114613ab857600080fd5b50565b613ac481613329565b8114613acf57600080fd5b50565b613adb81613375565b8114613ae657600080fd5b5056fea26469706673582212204d28308501acc749ffbe1bed6ac935ae056cbdf501c11ba4fd3e660c1ca1ea0e64736f6c63430008040033",
  "linkReferences": {},
  "deployedLinkReferences": {}
}